:100000000C948C000C94B4000C94B4000C94B400C8
:100010000C94B4000C94B4000C94B4000C94B40090
:100020000C94B4000C94B4000C94B4000C94B40080
:100030000C94B4000C94B4000C94F4010C942F02B2
:100040000C949F010C94B4000C942C070C944A0758
:100050000C94B4000C94B4000C94B4000C94B40050
:100060000C94B4000C94B4001112131415160A0B5E
:100070000C0D0E0F000102030405000102054152A0
:100080004D3B414E474C453B484F52495A4F4E3BE2
:100090004D41473B00524F4C4C3B50495443483B29
:1000A0005941573B414C543B506F733B506F735217
:1000B0003B4E6176523B4C4556454C3B4D41473B90
:1000C00056454C3B000000000700020100000304FD
:1000D00006000000000000000000000000250028CD
:1000E000002B0000000000240027002A0004040464
:1000F00004040404040202020202020303030303D1
:1001000003010204081020408001020408102001AD
:10011000020408102000A51711241FBECFEFD8E05D
:10012000DEBFCDBF11E0A0E0B1E0EAE3F5E302C03D
:1001300005900D92A433B107D9F725E0A4E3B1E00F
:1001400001C01D92A032B207E1F710E0CCE8D0E088
:1001500004C02197FE010E94951ACB38D107C9F738
:100160000E9495080C94BF170C94000090E0FC01CD
:10017000EB53FF4F2491FC01EF5FFE4F3491FC01E4
:10018000E351FF4FE491EE2309F43CC0222339F1FF
:10019000233091F038F42130A9F0223001F584B5F4
:1001A0008F7D12C0263091F02730A1F02430B9F4B1
:1001B000809180008F7D03C0809180008F77809335
:1001C00080000DC084B58F7784BD09C08091B000D8
:1001D0008F7703C08091B0008F7D8093B000F0E0F6
:1001E000EE0FFF1FE752FF4FA591B4919FB7F89410
:1001F000611104C08C913095382302C0EC913E2BE4
:100200003C939FBF0895789484B5826084BD84B583
:10021000816084BD85B5826085BD85B5816085BD01
:10022000EEE6F0E0808181608083E1E8F0E010821A
:10023000808182608083808181608083E0E8F0E05B
:10024000808181608083E1EBF0E080818460808345
:10025000E0EBF0E0808181608083EAE7F0E080817C
:1002600084608083808182608083808181608083DC
:100270008081806880831092C1000895019739F0D1
:10028000880F991F880F991F02970197F1F708951A
:100290003FB7F8948091FE049091FF04A09100056F
:1002A000B091010526B5A89B05C02F3F19F0019616
:1002B000A11DB11D3FBFBA2FA92F982F8827820FEC
:1002C000911DA11DB11DBC01CD0142E0660F771F3C
:1002D000881F991F4A95D1F70895CF92DF92EF9228
:1002E000FF92CF93DF936B017C010E944801EB01E9
:1002F000C114D104E104F10479F00E9448016C1B9F
:100300007D0B683E7340A0F381E0C81AD108E10874
:10031000F108C851DC4FECCFDF91CF91FF90EF9007
:10032000DF90CF9008952FB7F8946091FA04709100
:10033000FB048091FC049091FD042FBF08951F924F
:100340000F920FB60F9211242F933F938F939F9389
:10035000AF93BF938091FA049091FB04A091FC04A9
:10036000B091FD043091F90423E0230F2D3720F4E0
:100370000196A11DB11D05C026E8230F0296A11DFF
:10038000B11D2093F9048093FA049093FB04A09389
:10039000FC04B093FD048091FE049091FF04A091B1
:1003A0000005B09101050196A11DB11D8093FE04C9
:1003B0009093FF04A0930005B0930105BF91AF9106
:1003C0009F918F913F912F910F900FBE0F901F9093
:1003D0001895E4E3F1E0108280E8818382838383CF
:1003E00014821582168208951F920F920FB60F92F3
:1003F00011248F939F938091F80481110BC08091F9
:10040000F70481115E9A9091F70487B5890F87BD33
:1004100081E008C0813049F49091F70487B5890FD5
:1004200087BD82E08093F80413C0823041F45E9867
:100430009091F60487B5890F87BD83E0F3CF8330B1
:1004400039F49091F60487B5890F87BD1092F804AE
:100450009F918F910F900FBE0F901F9018951F9234
:100460000F920FB60F9211248F939F938091F504F2
:1004700081110BC08091F40481115D9A9091F40474
:1004800088B5890F88BD81E008C0813049F490911A
:10049000F40488B5890F88BD82E08093F50413C009
:1004A000823041F45D989091F30488B5890F88BD3E
:1004B00083E0F3CF833039F49091F30488B5890F4A
:1004C00088BD1092F5049F918F910F900FBE0F90F1
:1004D0001F901895E4EBF2E08081918123E09595DF
:1004E00087952A95E1F7909389008093880082810F
:1004F000938133E0959587953A95E1F78093F704DA
:100500008481958143E0959587954A95E1F780939D
:10051000F4048091F70480958093F6048091F404AC
:1005200080958093F3048681978153E09595879514
:100530005A95E1F78093B4000895CF92DF92EF923D
:10054000FF92CF93DF9383E40E94780780911C058C
:1005500090911D05982789279827959587959595BA
:1005600087959093D7028093D60280911A05909137
:100570001B0598278927982791958195910995952D
:100580008795959587959093D9028093D80280910D
:100590001E0590911F059827892798279195819589
:1005A000910995958795959587959093DB02809312
:1005B000DA022091EA023091EB0221153105C1F1F6
:1005C00046ED52E0E7EEF4E0C1EED4E063EF74E014
:1005D000211582E0380721F41082118212821382E1
:1005E000DA018D919D91AD01092E000CAA0BBB0B78
:1005F000C080D180E280F3808C0D9D1DAE1DBF1D9B
:1006000081939193A193B193072E79E0B595A79526
:10061000979587957A95D1F7702D899399936E1751
:100620007F07B1F6215031093093EB022093EA02A3
:10063000C1EED4E0E6EDF2E0ABEDB4E08991999142
:1006400020813181281B390B4D915C911197CA0192
:10065000805293402817390734F0805C994F28174F
:1006600039070CF4C901819391938D939D9382E096
:10067000EC3DF80719F7DF91CF91FF90EF90DF90F5
:10068000CF9008958093BC008FEF9091BC0097FDB0
:100690000DC08150D1F71092BC0080914E02909114
:1006A0004F02019690934F0280934E020895CF938C
:1006B000C82F84EA0E944203C093BB0084E8CF9114
:1006C0000C9442039B01AC01AA27429FB001530244
:1006D000C00134039A0B700D811D9A1F52039A0BAF
:1006E000700D811D9A1F112408956F927F928F9231
:1006F0009F92AF92BF92CF92DF92EF92FF920F93B1
:100700001F93CF93DF93EC018B016A807B80CE80B7
:10071000DF80EA84FB84B301F801808191810E942B
:1007200062034B015C01B601F801828193810E9452
:100730006203860E971EA81EB91E88859985AA8514
:10074000BB8588199909AA09BB0988879987AA874F
:10075000BB87B701F801808191810E9462034B0140
:100760005C01B601F801848195810E946203861ABA
:10077000970AA80AB90A88819981AA81BB81880E43
:10078000991EAA1EBB1E88829982AA82BB82B701CB
:10079000F801828193810E9462036B017C01B301A5
:1007A000F801848195810E946203DC01CB018C0DEC
:1007B0009D1DAE1DBF1D0C811D812E813F81800FAF
:1007C000911FA21FB31F8C839D83AE83BF83DF91D4
:1007D000CF911F910F91FF90EF90DF90CF90BF903E
:1007E000AF909F908F907F906F9008954F925F92FF
:1007F0006F927F928F929F92AF92BF92CF92DF9231
:10080000EF92FF92CF93DF93CDB7DEB728970FB665
:10081000F894DEBF0FBECDBF6B017C0149015A01C8
:100820000E946D192B013C01C982DA82EB82FC82A5
:10083000F7FE0BC022273327A9012C193D094E09C9
:100840005F0929833A834B835C838D829E82AF82CA
:10085000B886B7FE0BC088279927DC01881999094B
:10086000AA09BB098D839E83AF83B88729813A810A
:100870004B815C818D819E81AF81B88528173907B6
:100880004A075B074CF4C501B4010E946D199B0136
:10089000AC01C301B20106C0C501B4010E946D19CB
:1008A000A30192010E94C3182B013C019B01AC01E2
:1008B0000E94F91921ED31E944E650E40E945718ED
:1008C0009B01AC01C301B2010E94C31823EC3DECB3
:1008D0004FEF54E40E94F9190E943519FB01498039
:1008E0005A806B807C802D813E814F8158854216D5
:1008F0005306640675065CF4B7FE13C0F7FE03C02A
:10090000E850F7400EC0FB01E85FF84F0AC0F7FC63
:1009100003C024E833E002C02CE73CEFF901E61BFA
:10092000F70BCF0128960FB6F894DEBF0FBECDBFF0
:10093000DF91CF91FF90EF90DF90CF90BF90AF907D
:100940009F908F907F906F905F904F90089540E1BF
:1009500050E060E070E08EE392E00E942E18EEE33B
:10096000F2E090E185E5915019F02191820FFBCFE3
:1009700090914D02981741F010923E0288E893E161
:100980009093400280933F0208956150A0F020911F
:10099000930230E0F901EF56FD4F408151E0540FD2
:1009A0005083205B3D4FF901E40FF11D2081FC01D4
:1009B0002193CF01EACF08952091930230E0D9012D
:1009C000A45CBE4F9C919F5F97FD90E0F901E55AB2
:1009D000FB4FE90FF11D80839C93F901EE56FD4F0B
:1009E0009081892780830895E0919302F0E0EE568C
:1009F000FD4F80810E94DC04E1ECF0E080818062A8
:100A000080830895CF93DF93D82FC62F84E20E946E
:100A1000DC048DE40E94DC04D11102C08EE301C02D
:100A200081E20E94DC04E0919302F0E0EE56FD4F7B
:100A300010828C2F0E94DC04E0919302F0E0E057DA
:100A4000FD4F8081DF91CF910C94DC0460E080E069
:100A50000E9402050C94F404FF920F931F93CF930E
:100A6000DF93F82ED92FC62F80E00E9402050F2DAC
:100A70001D2FCC2339F0F80181918F010E94DC04F5
:100A8000C150F7CFDF91CF911F910F91FF900C9440
:100A9000F404CF93DF93EC010E94C217682F80E02B
:100AA0000E940205FE018491882329F084910E940E
:100AB000DC042196F7CFDF91CF910C94F404CF9210
:100AC000DF92EF92FF920F931F93CF93DF93182F34
:100AD000042FC0E0C62ED12CE12CF12CC01791F0D0
:100AE000D0E0D11739F01D9AC701B6010E946D01FF
:100AF000DF5FF7CF6CE370E080E090E00E946D0173
:100B0000CF5FECCFDF91CF911F910F91FF90EF90CE
:100B1000DF90CF9008952091EA023091EB0280910E
:100B2000EC02232B89F482FF0FC0982F927499F462
:100B300082608093EC028091E8029091E9029093A8
:100B4000E3028093E202089581FD05C041E06FEF6A
:100B500082E00C945F0508952F923F924F925F922E
:100B60006F927F928F929F92AF92BF92CF92DF92BD
:100B7000EF92FF920F931F93CF93DF93CDB7DEB722
:100B80002A970FB6F894DEBF0FBECDBF10923E027B
:100B90004DE650E060E170E08EEE92E00E942E188B
:100BA000EEEEF2E09DE685E5915019F02191820F7D
:100BB000FBCF90915A039813BDC0E0900D03F12C28
:100BC00000910C039AEAC92E92E0D92E1A8219825A
:100BD00010E028EA822E24E0922EA12CB12C49812B
:100BE0005A81449F9001459F300D300D11242F50A4
:100BF00031092E9DC0012F9D900D3E9D900D112419
:100C00008A509A4F849FD001859FB00D949FB00D5C
:100C1000112498010E947A1AA50194010E94CB1711
:100C2000F601219331936F0129813A812F5F3F4F64
:100C30003A8329832530310591F6309111033A87A3
:100C400004E6031B84E6389FA00111245C834B83D8
:100C500080911203882E912CA12CB12C6090580306
:100C6000709059032AE337E0F901E619F709FE838A
:100C7000ED83FA85F195F98724E932E03A832983F7
:100C80001EE63A85131B482F50E058874F8380E1BA
:100C9000C82E87E2D82EE12CF12C5985151614F0B8
:100CA0004A8501C0402F89858802D00111242F81F7
:100CB00038850E947A1A1B012C01242F30E0D901BB
:100CC0000E941F189B01AC01C201B1010E94CB1709
:100CD000DA01C9018C599F4FAF4FBF4FAC01BD0125
:100CE000481959096A097B09E9858E2FEE0F990B7E
:100CF000849FD001859FB00D949FB00D11242B814E
:100D00003C81A20FB31F2D813E810E941F18A701B5
:100D100096010E94FD17260D371DE981FA81219366
:100D20003193FA83E983F985F65FF9871F13B5CF0D
:100D300081E008C043E064E686E00E945F050E940F
:100D4000DE0680E02A960FB6F894DEBF0FBECDBF58
:100D5000DF91CF911F910F91FF90EF90DF90CF9097
:100D6000BF90AF909F908F907F906F905F904F90CB
:100D70003F902F900895CF93C82F10923E02EEEE31
:100D8000F2E09DE685E5915019F02191820FFBCFAD
:100D900080935A034DE650E060E170E08EEE92E001
:100DA0000E943E180E94AC05C13031F441E064E17C
:100DB0008FE0CF910C945F05CF910895EEEEF2E0B5
:100DC00081E280832EE1218397E1928383832483D0
:100DD00095839AE5958B2AE0268B24E6278B24E4DD
:100DE00026832DE22783108620E4218729E12287AC
:100DF00038E133873FE034871586168632E237873D
:100E00003EE0308B35E3318B228B838B83E5848B03
:100E100088E2808F138E148E158E968F81E4878FD3
:100E200010A211A212A282E383A314A212A611A6F9
:100E300014A613A616A615A610AA17A616A215A2E2
:100E400010A617A211AA8EE794E0909359038093FD
:100E5000580380E00C94BB061F920F920FB60F92BE
:100E600011248F939F93EF93FF939091C600E0918D
:100E70003D0181E08E0FF0E0E25CFE4F90838093B5
:100E80003D01FF91EF919F918F910F900FBE0F90B9
:100E90001F9018951F920F920FB60F9211248F93E7
:100EA0009F93EF93FF9390913B0180913C019817A2
:100EB00069F081E0890F87FD80E0E82FF0E0E55AD6
:100EC000FB4F90819093C60080933B0190913C0131
:100ED000891305C08091C1008F7D8093C100FF916F
:100EE000EF919F918F910F900FBE0F901F901895CB
:100EF0000F931F93CF93C82F80ED0E945703C09389
:100F0000BB0084E80E94420381ED0E9457030AE17E
:100F100015E0C6E0C15049F084EC0E944203809184
:100F2000BB00F80181938F01F5CF84E80E94420352
:100F30008091BB0094E99093BC0080931F05CF91F2
:100F40001F910F9108950F931F93CF93DF93082F55
:100F5000162F80ED0E945703CBEBD0E0088384E886
:100F60000E944203188384E80E94420384E980932C
:100F7000BC00DF91CF911F910F91089590E0FC018B
:100F8000EF5FFE4F2491FC01E351FF4F84918823D2
:100F900099F090E0880F991FFC01ED51FF4FA5914A
:100FA000B491FC01E752FF4F859194918FB7F8946B
:100FB000EC91E22BEC938FBF0895CF93DF939CB518
:100FC0009F7D9CBD9CB5937F9CBD9CB59C7F9CBD2B
:100FD0009DB591609DBDC2E0D5E0682F8A810E94D9
:100FE000B6008C899D89DF91CF910C943E0181E000
:100FF0000C94DD0780E00C94DD078EBD0DB407FE78
:10100000FDCF8EB50895CF93C82F0E94FA078C2F7D
:101010008F710E94FD078FEF0E94FD07C82F0E946D
:10102000F7078C2FCF910895CF93DF93C82FD62F3A
:101030000E94FA078C2F8F7180620E94FD07C82FD3
:101040008D2F0E94FD070E94F7078C2FDF91CF9113
:10105000089580E00E94030881FD0BC0682F626044
:1010600080E00E94140865E070E080E090E00C945D
:101070006D0108950F931F93CF938C0186E00E941A
:101080000308C82FC77D0230110531F4C0628BE917
:1010900090E0A0E0B0E00DC00130110529F085E539
:1010A00090E0A0E0B0E005C0C86081E490E0A0E07E
:1010B000B0E08093120590931305A0931405B093AC
:1010C00015056C2F86E00E94140886E00E94030834
:1010D00091E0C81390E0892FCF911F910F9108954F
:1010E000EF92FF920F931F93CF93DF93182F7B0103
:1010F000C42F0E94FA07812F8F7180620E94FD0722
:10110000D82F8701CC2339F0F80181918F010E94FB
:10111000FD07C150F7CF0E94F7078D2FDF91CF91C8
:101120001F910F91FF90EF900895CF93DF93CDB76C
:10113000DEB7C154D1090FB6F894DEBF0FBECDBFE4
:101140000E94030182E08093C0001092C50080E1FC
:101150008093C4008091C10088698093C1008DE0B4
:101160000E94BE0788E00E94BE0708E111E0D80196
:101170008D918D010E94BE07B1E00C311B07B9F7BC
:101180008091800080688093800014BC80916E0004
:10119000846080936E0080916E00826080936E0008
:1011A0008091B00080628093B00088EE93E09093CD
:1011B000B5028093B4029093B7028093B6029093E5
:1011C000B9028093B8029093BB028093BA020E9446
:1011D0006A026CE271E080E090E00E946D010E9482
:1011E000A70410923E020E94AC0580913E02882323
:1011F00021F0815080933E02F6CF0E94A7040E9406
:10120000AC0540913E024F5F68E282E00E945F05BC
:101210000E94E90110925F03109260031092610333
:10122000109262031092630310926403109265039C
:1012300010926603109268031092670310926A037B
:101240001092690310926C0310926B0310926D035D
:1012500010926E0310926F0310927003109271033C
:1012600080910205909103052091040530910505B8
:101270008217930711F00E94BE0780910405909198
:10128000050520910205309103052817390711F053
:101290000E94BE0761E08AE00E94B6008AE00E94D8
:1012A000BE078CB580618CBD8CB580648CBD8DE033
:1012B0000E94BE078BE00E94BE07809102059091BC
:1012C000030520910405309105058217930719F055
:1012D00060E00E94B60081E00E94DD0765E070E0FA
:1012E00080E090E00E946D016CE080E00E941408B4
:1012F0006FE584E00E94140882E090E00E943A08C2
:10130000882319F081E08093080586E00E94030895
:1013100080E090E00E943A080E94FA0780E50E946F
:10132000FD0783E70E94FD070E94F70760E08DE15B
:101330000E94140860E08CE10E94140810920A05D3
:1013400060E787E00E9414086CE485E00E941408BE
:101350000E94FA0782EE0E94FD070E94F7070E9492
:10136000FA0781EE0E94FD070E94F7070E942908F4
:1013700080E00E940308682F6E7F80E00E941408BE
:1013800082E090E00E943A086FE381E00E94140836
:101390008DE10E940308682F66608DE10E941408A9
:1013A0008CE10E940308682F63608CE10E9414089E
:1013B00081E080930A0581EE8F8B80EF888F898F83
:1013C00088EE8A8F8B8F1C8E1D8E1E8EEFE6F0E0CE
:1013D000849140911005BE01695E7F4F0E947008A4
:1013E000E9E6F0E08491609109050E94140882E02A
:1013F0000E940308E5E7F0E0E49161E070E001C0DD
:10140000660FEA95EAF7682B82E00E9414080E94B2
:10141000290880E00E940308682F616080E00E9434
:10142000140860E787E00E941408809102059091FB
:10143000030520910405309105058217930719F0E3
:1014400061E00E94B60080910B05882341F0409135
:1014500010056BE075E08AE00E94700812C082E01F
:101460000E940308E4E7F0E0E49121E030E001C0ED
:10147000220FEA95EAF72095622F682382E00E9406
:1014800014088DE10E94030881FF07C00E94FA073B
:1014900081EE0E94FD070E94F70715E04CE0F42E54
:1014A00004E0449845981092B900F092B800009377
:1014B000BC0010924F0210924E0260E88BE60E9430
:1014C000A30762E370E080E090E00E946D0163E0BA
:1014D0008BE60E94A30760E08AE10E94A30768E10F
:1014E0008BE10E94A30762E087E30E94A30760E10B
:1014F0008CE10E94A30780914E0290914F02892BAC
:1015000011F0115071F60E944801709332046093FB
:10151000310480E092E09093EB028093EA028091A4
:10152000EC0280688093EC0221EE3AE74EE052E450
:1015300020935F03309360034093610350936203F1
:1015400084E19EEAABE0B3E4809363039093640389
:10155000A0936503B09366038091E8029091E9023D
:1015600090936803809367038091E6029091E7026D
:1015700090936A03809369038091E4029091E5025D
:1015800090936C0380936B038091E1039091E2034D
:10159000A091E303B091E40380936D0390936E03F5
:1015A000A0936F03B09370038091EC02809371035A
:1015B0000E9493016B017C0187E10E94030880FD7A
:1015C0004CC00E94FA0789EA0E94FD070FE513E06C
:1015D00084E1B82EBA94BB2031F0D8018D918D01F1
:1015E0000E94FD07F7CF0E94F70780910905873019
:1015F00018F037E0A32E01C0A82E90910A05911192
:1016000003C0B82EBA1801C0B12C0E94FA0781E6B7
:101610000E94FD0704E311E0AA94BFEFAB1639F076
:101620008FEF0E94FD07F80181938F01F5CFBB205A
:1016300029F08FEF0E94FD07BA94F9CF0E94F707B7
:1016400060E787E00E941408C0925B03D0925C03BD
:10165000E0925D03F0925E03AFCF80915B039091C7
:101660005C03A0915D03B0915E03C81AD90AEA0A2F
:10167000FB0A29EEC21623E0D206E104F10410F0C1
:101680000E94E9012091340130E0A8EEB3E00E940D
:101690001F182FEF30E040E050E00E94CB17DA0136
:1016A000C90188519C4FAF4FBF4F9093A9038093BE
:1016B000A8032091350130E0A8EEB3E00E941F1886
:1016C0002FEF30E040E050E00E94CB17DA01C90173
:1016D00088519C4FAF4FBF4F9093A7038093A603B1
:1016E0002091360130E0A8EEB3E00E941F182FEFE2
:1016F00030E040E050E00E94CB17DA01C901885188
:101700009C4FAF4FBF4F9093A5038093A4032091AC
:10171000370130E0A8EEB3E00E941F182FEF30E051
:1017200040E050E00E94CB17DA01C90188519C4F7C
:10173000AF4FBF4F9093A3038093A20380915704B0
:10174000909158042091550430915604AC01421BED
:10175000530B141615060CF0E2C1805E914B90936A
:101760005604809355048091B2038F5F833019F043
:101770008093B20302C01092B2034091B203B090C2
:10178000E70302EA13E0B2E76B2EB3E07B2E65E4D9
:1017900074E088EEE82E83E0F82E92EB892E93E039
:1017A000992E50E0440F551FFB01D801CD90DD90DC
:1017B0008D01D30112962D913C9113978D919C919F
:1017C0001197820F931F029614962D913C911597B5
:1017D000820F931F8C0D9D1D9695879596958795E5
:1017E00020813181235031098217930728F49C010D
:1017F0002E5F3F4F31832083208131812D5F3F4F0A
:101800002817390718F4029791838083C301840F46
:10181000951FDC01CD92DC92BB2051F0BA94D70128
:101820008D919C918538B3E09B0714F09183808360
:1018300026E0620E711C329632E0E30EF11C801637
:10184000910609F0B2CFB092E7033DE4E32E34E015
:10185000F32E10E0812F90E09595879595958795CB
:10186000182FDB012D913D91BD012D34B4E03B07D4
:1018700024F010682C3637400CF41064F4E06D341A
:101880007F0741F780914404811308C0809143048D
:101890008A3F30F48F5F8093430402C01092430468
:1018A0001093440480914B0490914C048D349440E7
:1018B00074F51092400410923F041092420410926A
:1018C000410410923B0410923C0410923D0410928B
:1018D0003E04109238041092370410923A04109289
:1018E00039048091170390911803892B81F090910E
:1018F00033048091EC02992329F080FF03C00E94F9
:101900008B0505C081FF03C08D7F8093EC02809121
:101910004304843109F05EC08091EC0281FF0EC067
:101920002091170330911803232B09F053C01F3562
:1019300009F050C08D7F8093EC024CC0173539F40C
:1019400080E092E09093EB028093EA0209C01B369C
:1019500039F40E94480170933204609331043AC014
:101960008091170390911803892B29F41F3619F4DD
:101970000E948B052FC0173939F480E092E09093D4
:10198000300480932F0426C01B3B31F48091150353
:1019900090911603029607C0173B51F480911503EE
:1019A00090911603029790931603809315030DC030
:1019B0001E3B11F00C949A1780911303909114031D
:1019C0000296909314038093130381E00E94BB0658
:1019D0001092430480E090E000E010E0D7014D91C8
:1019E0005D917D0161E070E0453AB6E05B0714F47B
:1019F00060E070E09C012E5F3F4FFB0102C0EE0FE4
:101A0000FF1F2A95E2F79F0161E070E04431F5E0A5
:101A10005F0714F060E070E0082E02C0660F771FC9
:101A20000A94E2F7622B732B4551554021E030E0D8
:101A30004F38514010F020E030E0AC014F5F5F4F75
:101A400002C0220F331F4A95E2F7622B732B062B3D
:101A5000172B03968C30910509F627E133E0A3E3B9
:101A6000B4E0F901819191919F018023912341E09C
:101A7000892B09F440E04D93F4E0A733BF0789F7C1
:101A80008091340481110C94891780912D049091D8
:101A90002E04C39714F00C9489178091EC02877F71
:101AA0008093EC0280913504882389F08091EC02C8
:101AB000877F8093EC0284FD0FC01092380410924F
:101AC000370410923A0410923904806103C0809167
:101AD000EC028F7E8093EC0280913304811105C06B
:101AE0008091EC0281608093EC028091360488231F
:101AF00081F08091EC0285FD22C080628093EC022F
:101B00008091E8029091E9029093E3028093E202CF
:101B100016C08091EC028F7D8093EC0210C0809102
:101B20002C04823051F028F4882339F0813029F0D8
:101B300006C0833011F0843011F410922C040E94FE
:101B4000480160935704709358048093590490930C
:101B50005A042091310430913204AB01421B530BE3
:101B60009A0150932B0440932A04203F3A4038F3C3
:101B700070933204609331048BE30E947807809164
:101B80001A0590911B05982789279827919581958B
:101B90009109B3E095958795BA95E1F79093DD02A9
:101BA0008093DC0280911C0590911D059827892760
:101BB000982791958195910913E0959587951A95A8
:101BC000E1F79093DF028093DE0280911E059091F1
:101BD0001F0598278927982703E0959587950A95EB
:101BE000E1F79093E1028093E00280912F049091BD
:101BF0003004009709F461C00197909330048093FA
:101C00002F046CED72E0E3EBF3E04FE352E08F3F23
:101C1000A1E09A0721F41082118212821382DB0163
:101C20002D913D91BD016901330FEE08FF08008140
:101C30001181228133810C0D1D1D2E1D3F1D01932D
:101C4000119321933193A9E0359527951795079521
:101C5000AA95D1F7DA010D931D93AD01B2E0623E72
:101C60007B07A9F6892B49F58091430290914402A4
:101C70009250909344028093430210921403109266
:101C800013031092160310921503EEE3F2E090E1B5
:101C900085E5915019F02191820FFBCF80934D0281
:101CA00040E150E060E070E08EE392E00E943E1878
:101CB00041E064E18FE00E945F058091DC02909139
:101CC000DD0220913F0230914002821B930B9093E2
:101CD000DD028093DC028091DE029091DF02209190
:101CE000410230914202821B930B9093DF0280935A
:101CF000DE028091E0029091E10220914302309156
:101D00004402821B930B9093E1028093E0020E94B5
:101D100048016B017C018091CD039091CE03B60107
:101D2000681B790B80E090E00E946B1929E134E494
:101D300042E959E30E94F9192B013C01D092CE03EC
:101D4000C092CD03E4ECF2E0FAA7E9A721EC33E07E
:101D500038A32F8FAE014F5F5F4F1A018AEC92E0DC
:101D60009CA38BA38F01C12CD12C7601AF8DB8A180
:101D70008D909D90AD90BC90D501C40174E0B69556
:101D8000A795979587957A95D1F7F80181939193C7
:101D90008F0146895789481B590B052E000C660B8D
:101DA000770B480D591D6A1D7B1DEF8DF8A14193DE
:101DB000519361937193F8A3EF8FBC010E9462036A
:101DC000C60ED71EE81EF91ED80150966D917C9163
:101DD0005197072E000C880B990B0E946D19A301D7
:101DE00092010E94F9190E943519F10161937193D2
:101DF0001F01F2E00A3C1F0709F0B8CFBE016F5F78
:101E00007F4F8CE091E00E947503BE016F5F7F4FB2
:101E100080E091E00E947503CD2CDE2CEF2CFF2496
:101E2000E7FCFA948601075613405CE0C52E51E0AA
:101E3000D52E64ECE62E62E0F62E1F8E18A219A2B3
:101E40001AA2023321E01207F8F4D7018D919C9178
:101E5000F60122813381821B930B092E000CAA0B01
:101E6000BB0B36E0880F991FAA1FBB1F3A95D1F70D
:101E70004081518162817381840F951FA61FB71F16
:101E800080839183A283B383D60112966D917C9156
:101E90001397F701819191917F010E9462032F8D29
:101EA00038A149A15AA1260F371F481F591F2F8F4C
:101EB00038A349A35AA334E0C30ED11C48E1C41689
:101EC00041E0D40609F0BDCF2091160130911701F1
:101ED0008091EC02213D314014F0806801C08F7781
:101EE0008093EC0280910E0190910F01BC010E9441
:101EF00062036B017C018091160190911701BC0176
:101F00000E946203C60ED71EE81EF91E80911201C0
:101F100090911301BC010E9462036C0D7D1D8E1D0A
:101F20009F1D0E946D198B019C0135952795179572
:101F30000795E9EF8E2E99249A94EFE1AE2EEFE506
:101F4000BE2E801A910AA20AB30A27E336E344E3BD
:101F50005FE30E94F919A50194010E94F919A501F6
:101F600094010E94F9199B01AC0166EF78E487EDBA
:101F70009FE30E945618A50194010E94F9196DA3D0
:101F80007EA38FA398A700910E0110910F012091BD
:101F9000160130911701032E000C440B550BB801AC
:101FA000012E000C880B990B0E94F6039093E5021A
:101FB0008093E402C701B6010E946D194B015C01D8
:101FC000DC01CB01B595A7959795879529EF422E12
:101FD00055245A942FE1622E2FE5722E481A590A81
:101FE0006A0A7B0A27E336E344E35FE3C501B401F1
:101FF0000E94F919A30192010E94F919A30192010B
:102000000E94F9199B01AC0166EF78E487ED9FE32C
:102010000E945618A30192010E94F919A50194018A
:102020000E94F9190E9435199B01AC01809112019F
:1020300090911301BC01990F880B990B0E94F60334
:102040009093E7028093E602A0910601B091070108
:10205000A70196010E94F5176B017C01B8018091E0
:102060000201909103010E9462034B015C016091A7
:1020700016017091170180910A0190910B010E9445
:102080006203A5019401260F371F481F591FA09115
:102090001201B09113010E94F517A7019601261BAA
:1020A000370B480B590BCA01B9010E946D192DA1BC
:1020B0003EA14FA158A50E94F9190E9435194B0164
:1020C0005C0160910E0170910F0180910A01909165
:1020D0000B010E9462036B017C01609116017091FB
:1020E000170180910201909103010E946203A701F0
:1020F0009601261B370B480B590BCA01B901A501E4
:1021000094010E94F6036AE070E00E94661A7093E0
:10211000E9026093E8028091EC0281FD20C0E0902A
:10212000BF03F090C0036F8D78A189A19AA10E948E
:102130006D192DA13EA14FA158A50E94F9190E9429
:102140003519970143E0359527954A95E1F7E21A4D
:10215000F30A6E0D7F1D7093C0036093BF030E944E
:102160009D028091D6029091D702909307048093AC
:1021700006048091D8029091D9029093090480932B
:1021800008048091DA029091DB0290930B04809313
:102190000A040E9448016F8F78A389A39AA38091B3
:1021A0004B0490914C048D3D35E09307ACF0309199
:1021B0001003803D47E0940764F48C5D9540389FA0
:1021C000A001399F500D1124852F869520E8281BEA
:1021D00004C020E8231B01C020E820900E03312C0E
:1021E00085E4482E84E0582E82E294E09EAB8DABCD
:1021F000AEEEB2E0BCA7ABA7E0E2F4E0FCAFEBAF21
:1022000042E154E05AAF49AF3A014F01BEA3ADA33A
:10221000E2E2F4E030E090E8B92ED2014D915D9118
:102220002D014D3DB5E05B072CF0403D17E0510717
:1022300064F008C08CED95E0841B950B843F61E051
:10224000960734F084EF91E003C0CA018C5D95409D
:10225000323009F466C0BC01660F672F661F770B2A
:1022600071958B01000F111F06551D4FD8010D915F
:102270001C917B01EE0CFF1CD701A455BD4FED90C6
:10228000FC90E01AF10A7695762F66277795679588
:102290006C01C61AD70AEC9CB001ED9C700DFC9C39
:1022A000700D1124660F672F661F770B7195600FF5
:1022B000711F71836083829DB001839D700D929D1B
:1022C000700D1124872F8695BB2DB81BB29FC001BE
:1022D0001124880F892F881F990B9195ADA1BEA15C
:1022E0001C91189FB001199F700D1124660F672F64
:1022F000661F770B7195D4016C93ADA1BEA11296A8
:102300001C91189FB001199F700D1124660F672F43
:10231000661F770B7195D3016C934C3D554034F09B
:102320000CC0918380834C3D5540C4F480819181E1
:10233000919581959109918380833F5F32964DA15C
:102340005EA14D5F5F4F5EA34DA35FEF851A950AB7
:102350006FEF661A760A333009F05FCF20914B0495
:1023600030914C042C3484E038073CF0213D97E058
:1023700039072CF020ED37E002C02CE434E02C5477
:102380003440AFEFB9E00E941F1824E833E040E08A
:1023900050E00E94FD17832F9927FC01EE0FFF1FCD
:1023A000EC56FD4FA081B181FC01EE0FFF1FEA56F4
:1023B000FD4F608171816A1B7B0B982F88278901F3
:1023C000081B190B609FC001619F900D709F900DBD
:1023D0001124892F9927AC014A0F5B1F50932904C0
:1023E000409328048091FF038F5F8093FF038091C7
:1023F0002F0490913004892B31F48091EA0290915E
:10240000EB02892B11F01D9A08C08091EC0282FD2D
:102410002D988091EC0281FD2D9A409157045091A6
:1024200058046091590470915A048091FB03909173
:10243000FC03A091FD03B091FE0384179507A60746
:10244000B70700F58091EC0287FD19C08B7F809360
:10245000EC021D9A8091570490915804A091590460
:10246000B0915A0480569947AE4FBF4F8093FB03FB
:102470009093FC03A093FD03B093FE0303C084601C
:102480008093EC020E9448011092930280913D01DA
:102490009091CF03891B412C72E0572EE2E3FE2E70
:1024A000FEE76F2EF0E07F2EAAE38A2EA7E09A2E99
:1024B000B8EEAB2EB3E0BB2E17EEE12E03E0D02E2C
:1024C0002FEF280F882309F4C4C180913C0190911B
:1024D0003B01891B8F778F3408F0BBC18091CF03FC
:1024E000E82FF0E0E25CFE4F908130913D018317D0
:1024F00019F08F5F8093CF038091FA03811105C09B
:1025000081E0943209F09EC1A1C1813029F49D344B
:1025100009F098C182E09AC1823029F49C3309F015
:1025200091C183E093C1833071F4913410F0822F14
:10253000C7CF9093F903909392021092F8031092F0
:10254000910284E083C1843049F490939002809199
:10255000920298279093920285E078C1853009F025
:1025600075C1E091F8034091F90330919202E417AC
:1025700060F439273093920231E03E0F3093F80334
:10258000F0E0E05BFD4F908361C139135DC1809144
:102590009002853709F419C108F057C08D3609F447
:1025A00008C128F5873609F4E8C0A8F4853609F48F
:1025B000B3C008F0DEC0843609F03DC1E982DA829A
:1025C0001B8220E030E040E050E72C833D834E83C7
:1025D0005F8367E0CBC0893609F4E7C008F4DBC04D
:1025E0008C3609F028C166E084EE92E021C1813783
:1025F00009F4EEC048F48F3609F4DFC008F0E1C0FA
:1026000067E088ED93E014C1833709F4F4C008F063
:10261000E3C01A82198280915803909159039C83D8
:102620008B839E828D82B886AF821A8619861C861D
:102630001B861D861E861F86188A1A8A198A1B8A7F
:102640001C8A1D8A1E8A66E191C08F3C09F450C025
:10265000C8F48A3CC9F178F4883709F492C0883C00
:1026600059F1873709F0E7C064E080E00E94020575
:102670000AE710E0B6C08C3CA9F160F18D3C09F48A
:10268000C5C0D9C08F3E09F48AC048F4833DF1F13A
:10269000843D09F47AC0803D09F0CDC0B0C08A3FC6
:1026A00009F4BDC08E3F09F4C0C0803F09F0C3C02B
:1026B00064E083E193E0BCC060E188EE93E00E94B7
:1026C000C504F092E703C0C00E9426056EE18EEEBD
:1026D00092E005C00E94260568E087E193E00E9431
:1026E000C504B2C00E94260567E08CE093E0F7CFF6
:1026F0000E94260566E1CE0101960E94C5048B81E9
:102700009C8190935903809358039EC00E94260594
:1027100062E082EE92E0E3CF80912A0490912B0454
:102720009A83898380914E0290914F029C838B8380
:1027300041E050E05E834D832091EC0223FD04C014
:1027400080E090E0DC0104C082E090E0A0E0B0E036
:1027500024FD846025FD886021FD81608F8398873A
:10276000A987BA8780913E028B876BE0CE010196E4
:102770005FC062E184EC92E05BC060E180E291E0E6
:1027800057C068E380E293E053C00E94260568E3E7
:1027900080E293E0A4CF60E184EB92E049C00E9424
:1027A000260564E083E193E09ACF60E185E494E05C
:1027B0003FC066E081EE93E03BC067E08CE093E0D1
:1027C00037C06EE18EEE92E033C085E990E006C03E
:1027D00068E087E193E02CC08EE790E00E94490515
:1027E00033C0F80184910E94DC040F5F1F4F601614
:1027F0007106B9F724C068E088E191E019C08091C2
:10280000EC0281FD0FC00E94DE060CC08091EC023C
:1028100081FD08C05092300440922F0403C080E034
:102820000E94BB060E9426050FC068E080ED93E081
:102830000E942C0509C060E081E00E9402050E9410
:10284000F40402C080E002C080E020E08093FA033C
:102850006ECE0E9448012F8D38A1621B730B6A381F
:102860007240BCF30E949D02E6E0F4E000E014E058
:1028700063E0E62EF12CABA1BCA11C962D913C91FE
:102880001D9780819181280F391F21933193D801A1
:102890008D919C91820F931FB7010E94661AABA184
:1028A000BCA16D937D93BCA3ABA335952795D801AF
:1028B0002D933D938D01B4E0EC30FB07E1F62091C0
:1028C000260430912704A9014B5B5F4F8091E802F9
:1028D0009091E9021091EC021BA34B38510570F561
:1028E00015FF2CC04091E2025091E302841B950B2E
:1028F0008D344FEF940714F488599E4F843B910513
:1029000014F0885691401BA117FD04C04091ED02C0
:102910004370C1F060910603689FA001699F500D4C
:102920001124CA0145E0959587954A95E1F7281B42
:10293000390B309327042093260404C09093E302BC
:102940008093E2021BA114FF22C040902204509009
:10295000230457FE03C051944194510880912404EC
:102960009091250497FF03C091958195910992015B
:10297000481659060CF49C01213042E0340714F04B
:1029800020E032E02901330F6608770803C0412CAC
:10299000512C32018CE194E098AB8FA788E1882E0E
:1029A00084E0982EA4E1B4E0BEA7ADA7ECE0F4E08B
:1029B000F8AFEFAB9FE3A92E94E0B92E27E334E004
:1029C00038A32F8F4EEE52E05EA34DA3C12CD12C25
:1029D0001BA1187122961FAF2297ADA9BEA9ED9039
:1029E000FD90BEABADABEE0CFF1CE9A5FAA5868150
:1029F00097819C0197FF04C022273327281B390B9E
:102A000021383240CCF49701281B390BC901D5017C
:102A10002D913C91820F931F8138BEE39B0714F0E8
:102A200080E89EE38038E1EC9E0714F480E891ECA6
:102A3000D5018D939C9303C0F50111821082D501BD
:102A40008D919C91880F892F881F990BEDA1FEA174
:102A50002181289F1001299F300C1124B6E0359464
:102A60002794BA95E1F7608170E0C7010E94620384
:102A70009B01AC0116E055954795379527951A951A
:102A8000D1F721962CAF3DAF4EAF5FAF21970DAD83
:102A90001EAD22963FAD2297332309F492C0F60172
:102AA000E05DFE4F808191818E0D9F1D853F41E04D
:102AB000940714F084EF91E08C305EEF950714F4E6
:102AC0008CE09EEFF601EC51FD4F208131817C01BD
:102AD000E21AF30AABA5BCA595968D919C919697A9
:102AE0008E0D9F1DEF8DF8A100811181080F191F18
:102AF0000131F7E21F0714F000E117E2003F28ED73
:102B0000120714F400EF18EDAF8DB8A10D931C93CC
:102B10006091030370E00E946203AB01BC01F7E027
:102B20007595679557954795FA95D1F78091050367
:102B3000B5E08B9FC0011124EE24FF24E81AF90AA6
:102B40004E155F052CF07A01841795070CF47C0173
:102B50006091040370E0C8010E9462039B01AC0114
:102B60006CE055954795379527956A95D1F729AB30
:102B70003AAB4BAB5CABD101A21BB30BA3019201EF
:102B80000E94F517DC01CB0179E0B595A7959795E3
:102B900087957A95D1F729A83AA8280E391EADADA8
:102BA000BEADAE19BF090E94F517DC01CB01E9E00B
:102BB000B595A79597958795EA95D1F78701080F61
:102BC000191FABADBCAD6D91BCAFABAF70E0E9A56B
:102BD000FAA5868197810E946203DC01CB0126E081
:102BE000B595A795979587952A95D1F7081B190B49
:102BF000A9A5BAA516968D919C911797EFA5F8A94E
:102C000020813181AC01421B530B9A018193919336
:102C1000F8ABEFA7D4014D915C911197EDA5FEA5FE
:102C200080819181840F951F41935193FEA7EDA759
:102C30002D933D934D01E9ADFAAD6191FAAFE9AF46
:102C400070E0820F931F0E946203020D131DDC01CE
:102C5000CB0135E0B595A795979587953A95D1F72E
:102C6000081B190BAFA9B8AD0D931D93B8AFAFAB4F
:102C7000B2E0CB0ED11CE9A5FAA53296FAA7E9A7D6
:102C8000F2E0AF0EB11C2DA13EA12D5F3F4F3EA340
:102C90002DA34BA55CA54E5F5F4F5CA74BA78F8D07
:102CA00098A1029698A38F8F94E0C916D10409F0D9
:102CB00094CE60910F0370E0615F7F4F660F771FC6
:102CC00080912604909127040E9462034B015C01CD
:102CD000A5E0B594A79497948794AA95D1F780918D
:102CE000CE029091CF028401081B190B6091F5026E
:102CF00070E0C8010E946203940197FE04C022277D
:102D00003327281939092333310564F580903B04B2
:102D100090903C04A0903D04B0903E04DC01CB01B7
:102D2000880D991DAA1DBB1D8F3FEFEF9E07AE07B3
:102D3000EFE0BE0724F08EEF9FEFAFEFBFE08230F1
:102D40009105A105F0EFBF0724F482E090E0A0E038
:102D5000B0EF80933B0490933C04A0933D04B09368
:102D60003E0408C010923B0410923C0410923D04B3
:102D700010923E046091F40270E0C8010E94620368
:102D8000AB01BC01E6E07595679557954795EA95C7
:102D9000D1F79091F6022CE231E0D901A91BB109DB
:102DA000222733272A1B3B0B421753072CF09A018B
:102DB000A417B5070CF49D0180913B0490913C044D
:102DC000A0913D04B0913E045DE0B595A79597951F
:102DD00087955A95D1F78B3F910514F08AEF90E0D3
:102DE0008630BFEF9B0714F486E09FEFAC01420FE3
:102DF000531F5093110440931004A0912804B091E4
:102E0000290420910C0430910D04CD01821B930BF9
:102E1000E0910E04F0910F04BC016E0F7F1F641B44
:102E2000750B7093B5026093B4028E1B9F0B840FD9
:102E3000951F9093B7028093B6022A0F3B1FDF01C4
:102E4000A20FB31FA40FB51FB093B902A093B8028D
:102E50002E1B3F0B241B350B3093BB022093BA0271
:102E60008A179B070CF4CD01821793070CF4C90154
:102E7000861797070CF4CB01209158033091590322
:102E8000A0904B04B0904C04E4EBF2E044E0F42E4C
:102E9000DC01AA53B7401BA11074E12E48EE53E0A9
:102EA0001BA11270D12E8B3367E0960734F000819E
:102EB00011810A1B1B0B11830083008111810217F2
:102EC00013073CF00B3367E0160724F00AE317E022
:102ED00001C08901118300831CE4A11614E0B1062E
:102EE00024F4E11002C051834083D11002C0518309
:102EF0004083FA943296F110D6CF0E946A0280E0A5
:102F000090E0892B11F40C94940A0E9400000C9418
:102F1000940A8091EC0283FF02C00C94520D10922F
:102F200038041092370410923A04109239048860E1
:102F30000C94500D1D3B11F00C94EA0C809113037E
:102F40009091140302970C94E10CE2E0F5E087E025
:102F500090E09183808388E090E09383828316825F
:102F600080E28783108685E0868785E090E0A0E098
:102F7000B0E0848B958BA68BB78B11860895F8945F
:102F80000C949B1AFC0105900020E9F78095909520
:102F90008E0F9F1F0895052E97FB1EF400940E942C
:102FA000E21757FD07D00E94FD1707FC03D04EF42F
:102FB0000C94E21750954095309521953F4F4F4F17
:102FC0005F4F089590958095709561957F4F8F4FD5
:102FD0009F4F08950E941F18A59F900DB49F900DBC
:102FE000A49F800D911D11240895B7FF0C94EA173A
:102FF0000E94EA17821B930B0895A1E21A2EAA1BC6
:10300000BB1BFD010DC0AA1FBB1FEE1FFF1FA21798
:10301000B307E407F50720F0A21BB30BE40BF50B95
:10302000661F771F881F991F1A9469F7609570951E
:10303000809590959B01AC01BD01CF010895A29FA1
:10304000B001B39FC001A39F700D811D1124911D7C
:10305000B29F700D811D1124911D0895DC01CB01DB
:10306000FC01F999FECF06C0F2BDE1BDF89A319698
:1030700000B40D9241505040B8F70895DC01CB01E7
:1030800003C02D910E94491841505040D0F7089537
:10309000262FF999FECF1FBA92BD81BD20BD0FB674
:1030A000F894FA9AF99A0FBE019608955058BB27E2
:1030B000AA270E946E180C94BF190E94B11938F00B
:1030C0000E94B81920F039F49F3F19F426F40C94AB
:1030D000AE190EF4E095E7FB0C94A819E92F0E94B5
:1030E000D01958F3BA17620773078407950720F0C1
:1030F00079F4A6F50C94F2190EF4E0950B2EBA2F84
:10310000A02D0B01B90190010C01CA01A0011124ED
:10311000FF27591B99F0593F50F4503E68F11A1699
:10312000F040A22F232F342F4427585FF3CF46952A
:1031300037952795A795F0405395C9F77EF41F164C
:10314000BA0B620B730B840BBAF09150A1F0FF0F16
:10315000BB1F661F771F881FC2F70EC0BA0F621F02
:10316000731F841F48F4879577956795B795F795F2
:103170009E3F08F0B0CF9395880F08F09927EE0F87
:103180009795879508950E94D7180C94BF190E94AF
:10319000B81958F00E94B11940F029F45F3F29F0A6
:1031A0000C94A81951110C94F3190C94AE190E94A7
:1031B000D01968F39923B1F3552391F3951B550B5F
:1031C000BB27AA2762177307840738F09F5F5F4FFA
:1031D000220F331F441FAA1FA9F335D00E2E3AF039
:1031E000E0E832D091505040E695001CCAF72BD051
:1031F000FE2F29D0660F771F881FBB1F26173707A2
:103200004807AB07B0E809F0BB0B802DBF01FF27D3
:1032100093585F4F3AF09E3F510578F00C94A819EF
:103220000C94F3195F3FE4F3983ED4F386957795B9
:103230006795B795F7959F5FC9F7880F911D96958C
:10324000879597F90895E1E0660F771F881FBB1FE8
:10325000621773078407BA0720F0621B730B840B95
:10326000BA0BEE1F88F7E09508950E943C19689408
:10327000B1110C94F31908950E94D81988F09F5742
:1032800098F0B92F9927B751B0F0E1F0660F771F8A
:10329000881F991F1AF0BA95C9F714C0B13091F080
:1032A0000E94F219B1E008950C94F219672F782F5B
:1032B0008827B85F39F0B93FCCF386957795679545
:1032C000B395D9F73EF490958095709561957F4FB1
:1032D0008F4F9F4F0895E89409C097FB3EF4909557
:1032E0008095709561957F4F8F4F9F4F9923A9F0DF
:1032F000F92F96E9BB279395F6958795779567956E
:10330000B795F111F8CFFAF4BB0F11F460FF1BC0B1
:103310006F5F7F4F8F4F9F4F16C0882311F096E944
:1033200011C0772321F09EE8872F762F05C06623F2
:1033300071F096E8862F70E060E02AF09A95660FAB
:10334000771F881FDAF7880F9695879597F9089564
:1033500097F99F6780E870E060E008959FEF80EC48
:10336000089500240A9416161706180609060895EB
:1033700000240A9412161306140605060895092E51
:103380000394000C11F4882352F0BB0F40F4BF2BC0
:1033900011F460FF04C06F5F7F4F8F4F9F4F089500
:1033A00057FD9058440F551F59F05F3F71F04795F6
:1033B000880F97FB991F61F09F3F79F087950895DB
:1033C000121613061406551FF2CF4695F1DF08C0FA
:1033D000161617061806991FF1CF86957105610517
:1033E00008940895E894BB2766277727CB0197F9BF
:1033F00008950E940C1A0C94BF190E94B11938F05C
:103400000E94B81920F0952311F00C94A8190C947F
:10341000AE1911240C94F3190E94D01970F3959FE2
:10342000C1F3950F50E0551F629FF001729FBB27BB
:10343000F00DB11D639FAA27F00DB11DAA1F649F57
:103440006627B00DA11D661F829F2227B00DA11D0A
:10345000621F739FB00DA11D621F839FA00D611D90
:10346000221F749F3327A00D611D231F849F600DB1
:10347000211D822F762F6A2F11249F5750409AF0DA
:10348000F1F088234AF0EE0FFF1FBB1F661F771F66
:10349000881F91505040A9F79E3F510580F00C9431
:1034A000A8190C94F3195F3FE4F3983ED4F3869582
:1034B00077956795B795F795E7959F5FC1F7FE2BD1
:1034C000880F911D9695879597F9089597FB072E7C
:1034D00016F4009407D077FD09D00E94811A07FCEA
:1034E00005D03EF4909581959F4F08957095619514
:1034F0007F4F08950E941F18B7FF0895821B930BFA
:103500000895AA1BBB1B51E107C0AA1FBB1FA6172A
:10351000B70710F0A61BB70B881F991F5A95A9F77C
:1035200080959095BC01CD010895EE0FFF1F059089
:0A353000F491E02D0994F894FFCF08
:10353A000000000000000001000000000000000080
:10354A00000000000000000209060503100C0A0B27
:10355A00DC05DC05DC05DC05DC05DC05DC05E8034F
:04356A00000000005D
:00000001FF
