:100000000C9435000C945D000C945D000C945D0024
:100010000C945D000C945D000C945D000C945D00EC
:100020000C945D000C945D000C945D000C945D00DC
:100030000C945D000C945D000C945D000C945D00CC
:100040000C9459040C945D000C94DE040C94A304ED
:100050000C945D000C945D000C945D000C945D00AC
:100060000C9432030C945D00640511241FBECFEF85
:10007000D4E0DEBFCDBF11E0A0E0B1E0E4E1F6E105
:1000800002C005900D92AA38B107D9F723E0AAE87B
:10009000B1E001C01D92A530B207E1F710E0C5E361
:1000A000D0E004C02197FE010E94020BC433D107A7
:1000B000C9F70E9468050C94B4060C940000E09106
:1000C000F302F091F4020190F081E02D682F83EFAC
:1000D00092E00994613208F045C09091D2029111EA
:1000E000FCCF22E02093D20221E02093D1022FEF17
:1000F0002093D0021092CF026093CE02E3EDF2E0A3
:10010000AEEAB2E020E0621721F031913D932F5F1B
:10011000FACF1092AD022091AD02880F822B80930E
:10012000AD028091AC02813041F41092AC0280911A
:10013000AD028093BB0085EC01C085EE8093BC00CE
:100140008091D2028230E1F38091D0028F3F79F02A
:100150008091D002803241F08091D002803331F022
:1001600094E005C091E003C092E001C093E0892FC4
:1001700008956091AB028091AA020E946A001092D9
:10018000A9021092AB021092A802089521E02093D8
:10019000A80228E62093AA021092A9021092AB02AC
:1001A0000E945F0080E090E00E945F000E94B90022
:1001B00080E090E008956132F0F59091D2029111C3
:1001C000FCCF91E09093D2029093D1022FEF209335
:1001D000D0021092CF02260F2093CE029093AD0250
:1001E0009091AD02880F892B8093AD028091AC0273
:1001F000813041F41092AC028091AD028093BB003B
:1002000085EC01C085EE8093BC008091D2028130E4
:10021000E1F38091CF02861710F46091CF02EEEAED
:10022000F2E0A8E8B2E080E0861721F091919D937A
:100230008F5FFACF089580E0089585ED8093BC002C
:100240008091BC0084FDFCCF1092D20208956132EF
:1002500098F42091D202243089F460936502282F0B
:10026000A5E4B2E0FC018E2F821B861718F4819161
:100270008D93F9CF80E0089581E0089582E008959C
:100280000895CF92DF92EF92FF920F931F93CF9337
:10029000DF936C01EB017B01E40EF51E00E010E042
:1002A000CE15DF0561F06991D601ED91FC910190C9
:1002B000F081E02DC6010995080F191FF1CFC80183
:1002C000DF91CF911F910F91FF90EF90DF90CF9032
:1002D0000895789484B5826084BD84B5816084BDBE
:1002E00085B5826085BD85B5816085BDEEE6F0E0AF
:1002F000808181608083E1E8F0E01082808182600B
:100300008083808181608083E0E8F0E0808181608B
:100310008083E1EBF0E0808184608083E0EBF0E0BB
:10032000808181608083EAE7F0E08081846080835F
:100330008081826080838081816080838081806809
:1003400080831092C10008950895E0913B0280914E
:100350003A02E81730F4F0E0E857FD4F808190E072
:1003600008958FEF9FEF089590913B0280913A029C
:10037000981750F4E92FF0E0E857FD4F208130E066
:100380009F5F90933B0202C02FEF3FEFC90108959A
:1003900080913A0290E020913B02821B91090895DE
:1003A000CF92DF92EF92FF920F931F93CF93DF9341
:1003B0007C01CB018A012091A802222389F0EB0164
:1003C0006B01C40ED51ECC15DD0569F06991D7010E
:1003D000ED91FC910190F081E02DC7010995F3CFDB
:1003E000642F0E942701C801DF91CF911F910F91C7
:1003F000FF90EF90DF90CF900895CF93DF931F92FF
:10040000CDB7DEB769832091A8022223D1F02091D5
:10041000AB02203240F021E030E0FC013383228344
:1004200080E090E015C08091A902E82FF0E0ED5245
:10043000FD4F998190838F5F8093A9028093AB02D7
:1004400005C061E0CE0101960E94270181E090E0A5
:100450000F90DF91CF9108950F931F93CF93DF9368
:10046000FC01A685B7858D01005C1F4FE8018881DE
:10047000998101968F739927AD014E5B5F4FEA0119
:100480002881398128173907D1F3E801288139817A
:10049000A20FB31F6C93A685B785A05CBF4F1196C2
:1004A0009C938E93A689B7892C9181E090E0078C6C
:1004B00002C0880F991F0A94E2F7822B8C9381E087
:1004C00081A30488F589E02D80818064808381E0A8
:1004D00090E0DF91CF911F910F910895FC0181A1D0
:1004E000882329F0A489B5898C9186FFFBCF11A2BE
:1004F0000895FC01A485B585FD01E05CFF4F2081D6
:1005000031813296808191812817390779F0808175
:100510009181A80FB91F8C91208131812F5F3F4FAE
:100520002F7333273183208390E008958FEF9FEF5F
:100530000895DC011C96ED91FC911D97DF01A05CF4
:10054000BF4F2D913C91119712968D919C911197CF
:100550002817390739F08D919C91E80FF91F808198
:1005600090E008958FEF9FEF0895FC012485358575
:10057000F901E05CFF4F80819181329620813181C9
:10058000821B930B8F739927089588E192E00C9456
:10059000B502BF92CF92DF92EF92FF920F931F931B
:1005A000CF93DF9321E02093A80228E62093AA02AC
:1005B0001092A9021092AB020E945F000E94B90043
:1005C00066E088E60E94DB0010923B0280933A02CC
:1005D000C82FD0E080913B029E01281B31092630B4
:1005E0003105A4F583EF92E00E94B401B82E83EFA9
:1005F00092E00E94B401DB2CC12C8C299D299093A0
:100600008B0180938A0183EF92E00E94B401B82E9F
:1006100083EF92E00E94B401FB2CE12C8E299F29EC
:1006200090938D0180938C0183EF92E00E94B4013E
:10063000B82E83EF92E00E94B4011B2D00E0802BC6
:10064000912B90938F0180938E01C4CF8AE891E023
:10065000DF91CF911F910F91FF90EF90DF90CF909E
:10066000BF9008951F920F920FB60F9211242F93EF
:100670003F934F935F936F937F938F939F93AF932A
:10068000BF93EF93FF938091B900887F803609F480
:100690009CC068F5883209F45BC090F4803109F49D
:1006A00054C038F4882309F4EFC0883009F44DC0F1
:1006B000EFC0883109F44CC0803209F45DC0E8C055
:1006C000803409F468C048F4803309F455C0883395
:1006D00009F0DEC08093D002D1C0803509F44FC04C
:1006E000883509F45DC0883409F0D2C0CFC088399C
:1006F00009F4C0C0A8F4883709F467C038F4883614
:1007000009F463C0803709F460C0C2C0883809F4B6
:10071000B1C0803909F45FC0803809F0B9C05BC04E
:10072000803B09F481C038F4803A09F466C0883A05
:1007300009F47AC0ADC0803C09F4A0C0883C09F43B
:100740009DC0883B09F483C0A3C08091AD0210C056
:100750009091CF028091CE02981770F5E091CF0270
:1007600081E08E0F8093CF02F0E0E255FD4F808153
:100770008093BB0085EC7FC08093D00287C0E0915E
:10078000CF0281E08E0F8093CF028091BB00F0E01A
:10079000E255FD4F80839091CF028091CE0267C0D9
:1007A000E091CF0281E08E0F8093CF028091BB0059
:1007B000F0E0E255FD4F80838091D102811166C047
:1007C00081E08093AC0284EA5AC083E08093D20235
:1007D00010928702CFCF80918702803208F04AC002
:1007E000E091870281E08E0F809387028091BB00A9
:1007F000F0E0E959FD4F8083BDCF809187028032C0
:1008000030F4E0918702F0E0E959FD4F10820E9438
:100810001D016091870270E087E692E0E0E0F0E081
:100820000995109287022AC084E08093D202109228
:10083000660210926502E0E0F0E0099580916502A1
:10084000811105C081E08093650210924502E0911C
:10085000660281E08E0F80936602F0E0EB5BFD4F55
:1008600080818093BB009091660280916502981709
:1008700008F480CF85E88093BC000AC085EC8093A3
:10088000BC001092D20204C01092D0020E941D013E
:10089000FF91EF91BF91AF919F918F917F916F9158
:1008A0005F914F913F912F910F900FBE0F901F902E
:1008B00018951F920F920FB60F9211242F933F930A
:1008C0008F939F93AF93BF93809141029091420287
:1008D000A0914302B09144023091400226E0230FE0
:1008E0002D3720F40296A11DB11D05C029E8230F64
:1008F0000396A11DB11D2093400280934102909365
:100900004202A0934302B093440280913C02909132
:100910003D02A0913E02B0913F020196A11DB11D82
:1009200080933C0290933D02A0933E02B0933F021D
:10093000BF91AF919F918F913F912F910F900FBEDB
:100940000F901F9018951F920F920FB60F921124BF
:100950002F933F938F939F93EF93FF932091D00119
:100960003091D1018091D2019091D301281739079C
:1009700031F48091C1008F7D8093C10014C0E0915B
:10098000D201F091D301E057FE4F20818091D20136
:100990009091D30101968F7399279093D3018093FF
:1009A000D2012093C600FF91EF919F918F913F91CB
:1009B0002F910F900FBE0F901F9018951F920F92BE
:1009C0000FB60F9211242F934F935F938F939F93A2
:1009D000EF93FF938091C00082FD1CC02091C60060
:1009E00080911402909115024091160250911702C5
:1009F00001968F7399274817590771F0E0911402F7
:100A0000F0911502EC52FE4F2083909315028093D3
:100A1000140202C08091C600FF91EF919F918F91C7
:100A20005F914F912F910F900FBE0F901F901895CF
:100A3000E3EFF2E01382128288EE93E0A0E0B0E0F0
:100A400084839583A683B78384E191E09183808337
:100A50000895E8E1F2E01382128288EE93E0A0E0CC
:100A6000B0E084839583A683B78384E091E091838B
:100A7000808384ED91E09587848780E991E0978772
:100A8000868785EC90E0918B808B84EC90E0938B53
:100A9000828B80EC90E0958B848B81EC90E0978B3F
:100AA000868B82EC90E0918F808F86EC90E0938F24
:100AB000828F84E0848F83E0858F87E0868F85E056
:100AC000878F81E080A308950E9418050C94290562
:100AD000CF93DF9300D000D0CDB7DEB70E9469017D
:100AE000E0912C02F0912D0281E090E09C010090B9
:100AF000380202C0220F331F0A94E2F72083E091EC
:100B00002802F09129021082E0912A02F0912B0232
:100B100027E6208310923902E0912E02F0912F02F5
:100B200040819C010090340202C0220F331F0A94BE
:100B3000E2F7242B2083E0912E02F0912F024081D6
:100B40009C010090350202C0220F331F0A94E2F785
:100B5000242B2083E0912E02F0912F0240819C01F2
:100B60000090360202C0220F331F0A94E2F7242BB2
:100B70002083E0912E02F0912F0220810090370215
:100B800002C0880F991F0A94E2F780958223808320
:100B90008BE690E00E94C6008CE190E00E94C600C7
:100BA0008BE190E00E94C60080E2882E81E0982EC2
:100BB00093E3C92E91E0D92E2CE4E22E21E0F22E0F
:100BC0000BE511E08BE390E00E94C9025C01FC019F
:100BD00060817181072E000C880B990B0E944107E0
:100BE00020E030E040E858E30E94CD07762E672EE3
:100BF000582E492EF50162817381072E000C880B57
:100C0000990B0E94410720E030E040E858E30E9441
:100C1000CD0769837A838B839C83F5016481758119
:100C2000072E000C880B990B0E94410720E030E052
:100C300040E858E30E94CD07B62EA72E382E292E65
:100C40009F928F92DF92CF920E94B7064F925F924F
:100C50006F927F92FF92EF920E94B706FC81FF9302
:100C60002B812F938A818F9399819F931F930F9349
:100C70000E94B7062F923F92AF92BF92EAE6F1E050
:100C8000FF93EF930E94B70683E490E00E94C902AD
:100C90005C01FC0160817181072E000C880B990BAF
:100CA0000E94410720E030E043E053E40E94CD067B
:100CB0001B01782E692EF50162817381072E000CCD
:100CC000880B990B0E94410720E030E043E053E499
:100CD0000E94CD0669837A838B839C83F5016481AE
:100CE0007581072E000C880B990B0E94410720E0AC
:100CF00030E043E053E40E94CD06B62EA72E582ED6
:100D0000492E89E791E09F938F93DF92CF920E94C3
:100D1000B7066F927F923F922F92FF92EF920E94BE
:100D2000B7060FB6F894DEBF0FBECDBF9C819F9370
:100D3000EB81EF93FA81FF9329812F931F930F93F8
:100D40000E94B7064F925F92AF92BF928AE691E0FF
:100D50009F938F930E94B7060E94C5020FB6F89426
:100D6000DEBF0FBECDBF2ECFF8940C94080BA0E0D1
:100D7000B0E0EDEBF6E00C94DB0AAE014B5F5F4FA9
:100D8000FA0161917191AF01809101039091020389
:100D90000E943A08E2E00C94F70A0E94E1060C94E3
:100DA00093070E948C0758F00E94850740F029F4B1
:100DB0005F3F29F00C947C0751110C94C7070C94E9
:100DC00082070E94A40768F39923B1F3552391F396
:100DD000951B550BBB27AA2762177307840738F0AA
:100DE0009F5F5F4F220F331F441FAA1FA9F335D007
:100DF0000E2E3AF0E0E832D091505040E695001CBB
:100E0000CAF72BD0FE2F29D0660F771F881FBB1F74
:100E1000261737074807AB07B0E809F0BB0B802D52
:100E2000BF01FF2793585F4F3AF09E3F510578F07E
:100E30000C947C070C94C7075F3FE4F3983ED4F30F
:100E4000869577956795B795F7959F5FC9F7880F52
:100E5000911D9695879597F90895E1E0660F771FA4
:100E6000881FBB1F621773078407BA0720F0621B35
:100E7000730B840BBA0BEE1F88F7E0950895E89486
:100E800009C097FB3EF490958095709561957F4FD2
:100E90008F4F9F4F9923A9F0F92F96E9BB27939580
:100EA000F695879577956795B795F111F8CFFAF490
:100EB000BB0F11F460FF1BC06F5F7F4F8F4F9F4FC1
:100EC00016C0882311F096E911C0772321F09EE81F
:100ED000872F762F05C0662371F096E8862F70E085
:100EE00060E02AF09A95660F771F881FDAF7880F5F
:100EF0009695879597F9089597F99F6780E870E030
:100F000060E008959FEF80EC089500240A9416167F
:100F1000170618060906089500240A9412161306E7
:100F2000140605060895092E0394000C11F4882375
:100F300052F0BB0F40F4BF2B11F460FF04C06F5F91
:100F40007F4F8F4F9F4F089557FD9058440F551F67
:100F500059F05F3F71F04795880F97FB991F61F03B
:100F60009F3F79F087950895121613061406551FB2
:100F7000F2CF4695F1DF08C0161617061806991F1E
:100F8000F1CF86957105610508940895E894BB2713
:100F900066277727CB0197F908950E94E0070C9404
:100FA00093070E94850738F00E948C0720F0952354
:100FB00011F00C947C070C94820711240C94C70741
:100FC0000E94A40770F3959FC1F3950F50E0551F41
:100FD000629FF001729FBB27F00DB11D639FAA278E
:100FE000F00DB11DAA1F649F6627B00DA11D661FDD
:100FF000829F2227B00DA11D621F739FB00DA11DFE
:10100000621F839FA00D611D221F749F3327A00DB7
:10101000611D231F849F600D211D822F762F6A2F53
:1010200011249F5750409AF0F1F088234AF0EE0FB8
:10103000FF1FBB1F661F771F881F91505040A9F7E5
:101040009E3F510580F00C947C070C94C7075F3FCE
:10105000E4F3983ED4F3869577956795B795F79521
:10106000E7959F5FC1F7FE2B880F911D9695879599
:1010700097F90895ABE0B0E0E0E4F8E00C94CB0A17
:101080006C017B018A01FC0117821682838181FF3A
:10109000CCC1CE0101963C01F6019381F70193FD8D
:1010A000859193FF81917F01882309F4BAC185322C
:1010B00039F493FD859193FF81917F01853229F465
:1010C000B60190E00E94310AE7CF912C212C312CFF
:1010D000FFE1F315D8F08B3279F038F4803279F0F3
:1010E0008332A1F4232D20611DC08D3261F0803345
:1010F00069F4232D216016C0832D8260382EE32DE4
:10110000E4603E2E2AC0F32DF8601DC037FC2DC0D0
:1011100020ED280F2A3040F08E32B9F436FC81C120
:10112000232D2064322E19C036FE06C08AE0989E18
:10113000200D1124922E11C0EAE02E9E200D1124C4
:10114000222EF32DF0623F2E08C08C3621F4832D21
:101150008068382E02C0883641F4F70193FD8591EE
:1011600093FF81917F018111B3CF982F9F7D95547B
:10117000933028F40C5F1F4F9FE399830DC0833693
:1011800031F0833771F0833509F059C021C0F8017F
:10119000808189830E5F1F4F88248394912C530193
:1011A00013C02801F2E04F0E511CF801A080B1805D
:1011B00036FE03C0692D70E002C06FEF7FEFC501FE
:1011C0000E94260A4C018201F32DFF773F2E16C0A4
:1011D000280122E0420E511CF801A080B18036FEA9
:1011E00003C0692D70E002C06FEF7FEFC5010E9460
:1011F0001B0A4C01F32DF0683F2E820133FC1BC00B
:10120000822D90E088169906B0F4B60180E290E055
:101210000E94310A2A94F4CFF50137FC859137FEFC
:1012200081915F01B60190E00E94310A21102A9459
:1012300021E0821A91088114910471F7E8C0843684
:1012400011F0893641F5F80137FE07C060817181E0
:10125000828193810C5F1F4F08C060817181072ECE
:10126000000C880B990B0E5F1F4FF32DFF763F2E5E
:1012700097FF09C090958095709561957F4F8F4F2E
:101280009F4FF0683F2E2AE030E0A3010E946D0AD4
:10129000882E861845C0853731F4232D2F7EB22E37
:1012A0002AE030E025C0932D997FB92E8F36C1F00A
:1012B00018F4883579F0B5C0803719F0883721F0F7
:1012C000B0C0E92FE061BE2EB4FE0DC0FB2DF4606E
:1012D000BF2E09C034FE0AC0292F2660B22E06C0D8
:1012E00028E030E005C020E130E002C020E132E03B
:1012F000F801B7FE07C060817181828193810C5F24
:101300001F4F06C06081718180E090E00E5F1F4F2B
:10131000A3010E946D0A882E8618FB2DFF773F2EB1
:1013200036FE0DC0232D2E7FA22E891458F434FED4
:101330000BC032FC09C0832D8E7EA82E05C0B82CB0
:10134000A32C03C0B82C01C0B92CA4FE0FC0FE0111
:10135000E80DF11D8081803321F49A2D997EA92E0C
:1013600009C0A2FE06C0B394B39404C08A2D867847
:1013700009F0B394A3FC11C0A0FE06C0B21488F417
:10138000280C922C9B180EC0B21460F4B60180E2B7
:1013900090E00E94310AB394F7CFB21418F42B18DE
:1013A00002C0982C212CA4FE10C0B60180E390E06E
:1013B0000E94310AA2FE17C0A1FC03C088E790E09A
:1013C00002C088E590E0B6010CC08A2D867859F0FD
:1013D000A1FE02C08BE201C080E2A7FC8DE2B60153
:1013E00090E00E94310A891438F4B60180E390E05D
:1013F0000E94310A9A94F7CF8A94F301E80DF11D07
:101400008081B60190E00E94310A8110F5CF222040
:1014100009F442CEB60180E290E00E94310A2A949B
:10142000F6CFF6018681978102C08FEF9FEF2B9652
:10143000E2E10C94E70AFC01059061507040011054
:10144000D8F7809590958E0F9F1F0895FC016150ED
:10145000704001900110D8F7809590958E0F9F1FD6
:1014600008950F931F93CF93DF93FB01238121FDF9
:1014700003C08FEF9FEF2CC022FF16C0468157811B
:10148000248135814217530744F4A081B1819D0125
:101490002F5F3F4F318320838C93268137812F5FCD
:1014A0003F4F3783268314C08B01EC01FB0100847E
:1014B000F185E02D0995892BE1F6D80116968D91DD
:1014C0009C911797019617969C938E931697CE0131
:1014D000DF91CF911F910F910895FA01AA2728302B
:1014E00051F1203181F1E8946F936E7F6E5F7F4FF1
:1014F0008F4F9F4FAF4FB1E03ED0B4E03CD0670F6D
:10150000781F891F9A1FA11D680F791F8A1F911DBF
:10151000A11D6A0F711D811D911DA11D20D009F40F
:1015200068943F912AE0269F11243019305D319351
:10153000DEF6CF010895462F4770405D4193B3E03A
:101540000FD0C9F7F6CF462F4F70405D4A3318F0E1
:10155000495D31FD4052419302D0A9F7EACFB4E092
:10156000A6959795879577956795BA95C9F700974A
:101570006105710508959B01AC010A2E06945795EB
:10158000479537952795BA95C9F7620F731F841F42
:10159000951FA01D08952F923F924F925F926F92D8
:1015A0007F928F929F92AF92BF92CF92DF92EF92F3
:1015B000FF920F931F93CF93DF93CDB7DEB7CA1B74
:1015C000DB0B0FB6F894DEBF0FBECDBF09942A889F
:1015D000398848885F846E847D848C849B84AA8447
:1015E000B984C884DF80EE80FD800C811B81AA81D4
:1015F000B981CE0FD11D0FB6F894DEBF0FBECDBF9F
:10160000ED010895EE0FFF1F0590F491E02D099470
:04161000F894FFCF7C
:10161400000000002C024101B502790299026E0219
:1016240000000000FD01D001C801B401A501A4011E
:101634004163636C65726F6D6574657220666F7269
:101644006365005072696E74696E672076616C75AB
:1016540065732066726F6D2025730A00582D7661BC
:101664006C75652069733A25660A00592D76616C9C
:1016740075652069733A25660A005A2D76616C7582
:10168400652069733A25660A004779726F73636F40
:0A169400706520616E676C657300DD
:00000001FF
