:100000000C9435000C945D000C945D000C945D0024
:100010000C945D000C945D000C945D000C945D00EC
:100020000C945D000C945D000C945D000C945D00DC
:100030000C945D000C945D000C945D000C945D00CC
:100040000C94D4020C945D000C9459030C941E0380
:100050000C945D000C945D000C945D000C945D00AC
:100060000C94AD010C945D00DF0311241FBECFEF93
:10007000D4E0DEBFCDBF11E0A0E0B1E0E6EEF7E0F6
:1000800002C005900D92A032B107D9F722E0A0E29C
:10009000B1E001C01D92AA34B207E1F710E0C5E358
:1000A000D0E004C02197FE010E94EB03C433D107C6
:1000B000C9F70E94E3030C94E8030C94000085ED5B
:1000C0008093BC008091BC0084FDFCCF1092240280
:1000D0000895613298F420912402243089F46093C9
:1000E0000002282FA0EEB1E0FC018E2F821B8617A4
:1000F00018F481918D93F9CF80E0089581E00895FF
:1001000082E00895789484B5826084BD84B581606E
:1001100084BD85B5826085BD85B5816085BDEEE60F
:10012000F0E0808181608083E1E8F0E010828081EE
:1001300082608083808181608083E0E8F0E080815C
:1001400081608083E1EBF0E0808184608083E0EB7C
:10015000F0E0808181608083EAE7F0E08081846064
:1001600080838081826080838081816080838081C0
:10017000806880831092C100089508958FEF9FEFEB
:1001800008958FEF9FEF08958091CA0190E09195B7
:10019000819591090895CF93DF93CB01EA01642FF4
:1001A0000E946900CE01DF91CF910895CF93DF9334
:1001B0001F92CDB7DEB7698361E0CE0101960E9440
:1001C000690081E090E00F90DF91CF9108950F9347
:1001D0001F93CF93DF93FC01A685B7858D01005C4B
:1001E0001F4FE8018881998101968F739927AD018E
:1001F0004E5B5F4FEA012881398128173907D1F317
:10020000E80128813981A20FB31F6C93A685B785B9
:10021000A05CBF4F11969C938E93A689B7892C91B1
:1002200081E090E0078C02C0880F991F0A94E2F7E2
:10023000822B8C9381E081A30488F589E02D808155
:100240008064808381E090E0DF91CF911F910F91D6
:100250000895FC0181A1882329F0A489B5898C9196
:1002600086FFFBCF11A20895FC01A485B585FD0191
:10027000E05CFF4F20813181329680819181281787
:10028000390779F080819181A80FB91F8C91208165
:1002900031812F5F3F4F2F7333273183208390E0CD
:1002A00008958FEF9FEF0895DC011C96ED91FC916E
:1002B0001D97DF01A05CBF4F2D913C9111971296C5
:1002C0008D919C9111972817390739F08D919C9148
:1002D000E80FF91F808190E008958FEF9FEF089558
:1002E000FC0124853585F901E05CFF4F8081918117
:1002F000329620813181821B930B8F739927089549
:1003000088EA91E00C9470010895CF92DF92EF9209
:10031000FF920F931F93CF93DF936C01EB017B014F
:10032000E40EF51E00E010E0CE15DF0561F06991E6
:10033000D601ED91FC910190F081E02DC601099567
:10034000080F191FF1CFC801DF91CF911F910F91B5
:10035000FF90EF90DF90CF9008951F920F920FB60D
:100360000F9211242F933F934F935F936F937F933B
:100370008F939F93AF93BF93EF93FF938091B900B7
:10038000887F803609F49CC068F5883209F45BC028
:1003900090F4803109F454C038F4882309F4EFC094
:1003A000883009F44DC0EFC0883109F44CC0803268
:1003B00009F45DC0E8C0803409F468C048F48033B3
:1003C00009F455C0883309F0DEC080932302D1C000
:1003D000803509F44FC0883509F45DC0883409F0D0
:1003E000D2C0CFC0883909F4C0C0A8F4883709F456
:1003F00067C038F4883609F463C0803709F460C0F8
:10040000C2C0883809F4B1C0803909F45FC08038AF
:1004100009F0B9C05BC0803B09F481C038F4803A70
:1004200009F466C0883A09F47AC0ADC0803C09F48A
:10043000A0C0883C09F49DC0883B09F483C0A3C0D8
:100440008091490210C0909148028091470298170C
:1004500070F5E091480281E08E0F80934802F0E051
:10046000E95DFD4F80818093BB0085EC7FC0809368
:10047000230287C0E091480281E08E0F80934802FA
:100480008091BB00F0E0E95DFD4F808390914802D0
:100490008091470267C0E091480281E08E0F80930F
:1004A00048028091BB00F0E0E95DFD4F80838091C0
:1004B0002602811166C081E08093250284EA5AC039
:1004C00083E08093240210922202CFCF80912202F7
:1004D000803208F04AC0E091220281E08E0F8093C2
:1004E00022028091BB00F0E0EE5FFD4F8083BDCF24
:1004F00080912202803230F4E0912202F0E0EE5F3F
:10050000FD4F10820E945F006091220270E082E045
:1005100092E0E0E0F0E00995109222022AC084E027
:10052000809324021092010210920002E0E0F0E0B9
:10053000099580910002811105C081E0809300023D
:100540001092E001E091010281E08E0F80930102A0
:10055000F0E0E052FE4F80818093BB009091010259
:1005600080910002981708F480CF85E88093BC0042
:100570000AC085EC8093BC001092240204C0109243
:1005800023020E945F00FF91EF91BF91AF919F9175
:100590008F917F916F915F914F913F912F910F902C
:1005A0000FBE0F901F9018951F920F920FB60F92CB
:1005B00011242F933F938F939F93AF93BF93809179
:1005C000DC019091DD01A091DE01B091DF0130915D
:1005D000DB0126E0230F2D3720F40296A11DB11D6B
:1005E00005C029E8230F0396A11DB11D2093DB014F
:1005F0008093DC019093DD01A093DE01B093DF01D5
:100600008091D7019091D801A091D901B091DA01E0
:100610000196A11DB11D8093D7019093D801A0939D
:10062000D901B093DA01BF91AF919F918F913F9122
:100630002F910F900FBE0F901F9018951F920F9241
:100640000FB60F9211242F933F938F939F93EF93A5
:10065000FF9320916001309161018091620190913E
:1006600063012817390731F48091C1008F7D809391
:10067000C10014C0E0916201F0916301E05EFE4FA1
:100680002081809162019091630101968F73992777
:1006900090936301809362012093C600FF91EF91D4
:1006A0009F918F913F912F910F900FBE0F901F90B0
:1006B00018951F920F920FB60F9211242F934F93FC
:1006C0005F938F939F93EF93FF938091C00082FD80
:1006D0001CC02091C6008091A4019091A501409179
:1006E000A6015091A70101968F73992748175907C2
:1006F00071F0E091A401F091A501EC59FE4F208327
:100700009093A5018093A40102C08091C600FF913F
:10071000EF919F918F915F914F912F910F900FBE0D
:100720000F901F901895EBECF1E01382128288EE87
:1007300093E0A0E0B0E084839583A683B78384E14F
:1007400091E0918380830895E8EAF1E013821282B8
:1007500088EE93E0A0E0B0E084839583A683B7831E
:1007600084E091E09183808384E691E0958784879B
:1007700080E291E09787868785EC90E0918B808B73
:1007800084EC90E0938B828B80EC90E0958B848B53
:1007900081EC90E0978B868B82EC90E0918F808F3C
:1007A00086EC90E0938F828F84E0848F83E0858F46
:1007B00087E0868F85E0878F81E080A308950E947F
:1007C00093030C94A4030E9482000E948001FDCF39
:1007D000F8940C94F103EE0FFF1F0590F491E02DB7
:0607E0000994F894FFCF1C
:1007E60000000000E7008501700134015401290171
:1007F60000000000D600CB00C400C100BE00BD0052
:00000001FF
