:100000000C9478000C9495000C9495000C94950039
:100010000C9495000C9492010C9495000C9495000E
:100020000C9495000C9495000C9495000C949500FC
:100030000C9495000C9495000C9495000C949500EC
:100040000C941D010C9495000C94DF060C94FD0695
:100050000C9495000C9495000C9495000C949500CC
:100060000C9495000C9495000001020541524D3B03
:10007000414E474C453B484F52495A4F4E3B4D41EC
:10008000473B00524F4C4C3B50495443483B59412D
:10009000573B414C543B506F733B506F73523B4E38
:1000A0006176523B4C4556454C3B4D41473B56458E
:1000B0004C3B0000000000250028002B0000000041
:1000C00000240027002A0004040404040404040299
:1000D00002020202020303030303030102040810E5
:1000E00020408001020408102001020408102000B2
:1000F00011241FBECFEFD4E0DEBFCDBF11E0A0E0E2
:10010000B1E0E6EDFEE202C005900D92A235B10726
:10011000D9F725E0A2E5B1E001C01D92A630B207F3
:10012000E1F70E9490070C9493140C9400007894CB
:1001300084B5826084BD84B5816084BD85B58260EC
:1001400085BD85B5816085BDEEE6F0E0808181608A
:100150008083E1E8F0E0108280818260808380818A
:1001600081608083E0E8F0E0808181608083E1EB62
:10017000F0E0808184608083E0EBF0E0808181604A
:100180008083EAE7F0E08081846080838081826000
:1001900080838081816080838081806880831092E9
:1001A000C10008953FB7F8948091FC049091FD043C
:1001B000A091FE04B091FF0426B5A89B05C02F3F77
:1001C00019F00196A11DB11D3FBFBA2FA92F982F7D
:1001D0008827820F911DA11DB11DBC01CD0142E0F8
:1001E000660F771F881F991F4A95D1F70895CF9200
:1001F000DF92EF92FF92CF93DF936B017C010E941D
:10020000D200EB01C114D104E104F10479F00E94A1
:10021000D2006C1B7D0B683E7340A0F381E0C81ACE
:10022000D108E108F108C851DC4FECCFDF91CF9144
:10023000FF90EF90DF90CF9008951F920F920FB62E
:100240000F9211242F933F938F939F93AF93BF935C
:100250008091F8049091F904A091FA04B091FB0404
:100260003091F70423E0230F2D3720F40196A11DD0
:10027000B11D05C026E8230F0296A11DB11D2093D4
:10028000F7048093F8049093F904A093FA04B093D0
:10029000FB048091FC049091FD04A091FE04B091B8
:1002A000FF040196A11DB11D8093FC049093FD04F1
:1002B000A093FE04B093FF04BF91AF919F918F91E3
:1002C0003F912F910F900FBE0F901F901895EBEC60
:1002D000F2E08081918123E0959587952A95E1F759
:1002E00090938900809388008281938133E0959573
:1002F00087953A95E1F790938B0080938A008481EB
:10030000958143E0959587954A95E1F78093B300F1
:100310008681978153E0959587955A95E1F780936B
:10032000B40008951F920F920FB60F9211242F93CD
:100330003F934F935F936F937F938F939F93AF936D
:10034000BF93CF93DF93EF93FF93C9B1D091F6049E
:10035000DC270E94D2007894C093F604D2FF18C024
:10036000C2FD12C02091E6043091E704AB01421BAC
:10037000530B9A01455853404331554048F430934C
:1003800005012093040104C07093E7046093E60420
:10039000D4FF18C0C4FD12C02091E8043091E904D4
:1003A000AB01421B530B9A01455853404331554012
:1003B00048F4309309012093080104C07093E904C4
:1003C0006093E804D5FF18C0C5FD12C02091EA046F
:1003D0003091EB04AB01421B530B9A01455853403B
:1003E0004331554048F430930B0120930A0104C077
:1003F0007093EB046093EA04D6FF18C0C6FD12C0E8
:100400002091EC043091ED04AB01421B530B9A0197
:10041000455853404331554048F430930D012093E3
:100420000C0104C07093ED046093EC04D7FF17C077
:10043000C7FD11C02091EE043091EF04621B730BD5
:10044000CB01855893408331954048F470930F0158
:1004500060930E0104C07093EF046093EE04FF916B
:10046000EF91DF91CF91BF91AF919F918F917F914C
:100470006F915F914F913F912F910F900FBE0F9011
:100480001F901895CF92DF92EF92FF92CF93DF9358
:1004900083E40E942B078091020590910305982721
:1004A0008927982795958795959587959093EE023E
:1004B0008093ED028091000590910105982789278E
:1004C000982791958195910995958795959587950B
:1004D0009093F0028093EF028091040590910505BE
:1004E00098278927982791958195910995958795C2
:1004F000959587959093F2028093F10220910103E4
:100500003091020321153105C1F14DEE52E0EAEDC3
:10051000F4E0C4EDD4E066EE74E0211582E0380723
:1005200021F41082118212821382DA018D919D9141
:10053000AD01092E000CAA0BBB0BC080D180E2805C
:10054000F3808C0D9D1DAE1DBF1D81939193A193D2
:10055000B193072E79E0B595A795979587957A95EC
:10056000D1F7702D899399936E177F07B1F62150BB
:1005700031093093020320930103C4EDD4E0EDEE82
:10058000F2E0AEECB4E08991999120813181281B91
:10059000390B4D915C911197CA01805293402817F5
:1005A000390734F0805C994F281739070CF4C901DA
:1005B000819391938D939D9382E0E33FF80719F720
:1005C000DF91CF91FF90EF90DF90CF9008958093CF
:1005D000BC008FEF9091BC0097FD0DC08150D1F70A
:1005E0001092BC00809165029091660201969093F2
:1005F0006602809365020895CF93C82F84EA0E9413
:10060000E702C093BB0084E8CF910C94E7029B0102
:10061000AC01AA27429FB0015302C00134039A0BD8
:10062000700D811D9A1F52039A0B700D811D9A1F28
:10063000112408956F927F928F929F92AF92BF92F2
:10064000CF92DF92EF92FF920F931F93CF93DF939E
:10065000EC018B016A807B80CE80DF80EA84FB84A2
:10066000B301F801808191810E9407034B015C0175
:10067000B601F801828193810E940703860E971EBE
:10068000A81EB91E88859985AA85BB8588199909F0
:10069000AA09BB0988879987AA87BB87B701F80190
:1006A000808191810E9407034B015C01B601F80132
:1006B000848195810E940703861A970AA80AB90ABD
:1006C00088819981AA81BB81880E991EAA1EBB1EB2
:1006D00088829982AA82BB82B701F80182819381C4
:1006E0000E9407036B017C01B301F80184819581AD
:1006F0000E940703DC01CB018C0D9D1DAE1DBF1DAB
:100700000C811D812E813F81800F911FA21FB31F7D
:100710008C839D83AE83BF83DF91CF911F910F9117
:10072000FF90EF90DF90CF90BF90AF909F908F9011
:100730007F906F9008954F925F926F927F928F9209
:100740009F92AF92BF92CF92DF92EF92FF92CF93A0
:10075000DF93CDB7DEB728970FB6F894DEBF0FBE94
:10076000CDBF6B017C0149015A010E94DE152B01AE
:100770003C01C982DA82EB82FC82F7FE0BC02227A1
:100780003327A9012C193D094E095F0929833A83B2
:100790004B835C838D829E82AF82B886B7FE0BC08E
:1007A00088279927DC0188199909AA09BB098D8333
:1007B0009E83AF83B88729813A814B815C818D818B
:1007C0009E81AF81B885281739074A075B074CF42B
:1007D000C501B4010E94DE159B01AC01C301B20149
:1007E00006C0C501B4010E94DE15A30192010E945A
:1007F00034152B013C019B01AC010E946A1621EDCE
:1008000031E944E650E40E94C8149B01AC01C301E5
:10081000B2010E94341523EC3DEC4FEF54E40E94EA
:100820006A160E94A615FB0149805A806B807C8065
:100830002D813E814F815885421653066406750608
:100840005CF4B7FE13C0F7FE03C0E850F7400EC0DB
:10085000FB01E85FF84F0AC0F7FC03C024E833E06F
:1008600002C02CE73CEFF901E61BF70BCF012896FD
:100870000FB6F894DEBF0FBECDBFDF91CF91FF90D2
:10088000EF90DF90CF90BF90AF909F908F907F9030
:100890006F905F904F90089540E150E060E070E00D
:1008A00085E592E00E949F14E5E5F2E090E185E5A0
:1008B000915019F02191820FFBCF9091640298170B
:1008C00041F01092550288E893E19093570280938B
:1008D000560208956150A0F02091AA0230E0F9017B
:1008E000E855FD4F408151E0540F508329593D4F49
:1008F000F901E40FF11D2081FC012193CF01EACF22
:1009000008952091AA0230E0D901AD5ABE4F9C91C2
:100910009F5F97FD90E0F901E25BFB4FE90FF11D4E
:1009200080839C93F901E755FD4F9081892780834F
:1009300008950F931F93CF938C01C62FCC2339F0CA
:10094000F80181918F010E948104C150F7CFCF91AE
:100950001F910F910895E091AA02F0E0E755FD4F35
:1009600080810E948104E1ECF0E0808180628083DC
:100970000895CF93DF93D82FC62F84E20E9481047D
:100980008DE40E948104D11102C08EE301C081E296
:100990000E948104E091AA02F0E0E755FD4F108229
:1009A0008C2F0E948104E091AA02F0E0E955FD4FEE
:1009B0008081DF91CF910C94810460E080E00E94FF
:1009C000B9040C94AB040F931F93CF938C01C62FE3
:1009D00080E00E94B9046C2FC8010E949904CF9155
:1009E0001F910F910C94AB04CF93DF93EC010E9405
:1009F0009614682F80E00E94B904FE018491882338
:100A000029F084910E9481042196F7CFDF91CF9144
:100A10000C94AB04CF92DF92EF92FF920F931F934F
:100A2000CF93DF93182F042FC0E0C62ED12CE12CDA
:100A3000F12CC01791F0D0E0D11739F01D9AC70101
:100A4000B6010E94F700DF5FF7CF6CE370E080E053
:100A500090E00E94F700CF5FECCFDF91CF911F9124
:100A60000F91FF90EF90DF90CF90089520910103B8
:100A70003091020380910303232B89F482FF0FC07E
:100A8000982F927499F48260809303038091FF02FF
:100A9000909100039093FA028093F902089581FDEA
:100AA00005C041E06FEF82E00C940A0508952F9293
:100AB0003F924F925F926F927F928F929F92AF92EE
:100AC000BF92CF92DF92EF92FF920F931F93CF933B
:100AD000DF93CDB7DEB72A970FB6F894DEBF0FBE0F
:100AE000CDBF1092550240E750E060E170E085E034
:100AF00093E00E949F14E5E0F3E090E785E59150D4
:100B000019F02191820FFBCF909174039813BDC00F
:100B1000E0902403F12C0091230391ECC92E92E084
:100B2000D92E1A82198210E028EA822E24E0922E11
:100B3000A12CB12C49815A81449F9001459F300DD1
:100B4000300D11242F5031092E9DC0012F9D900D85
:100B50003E9D900D11248A509A4F849FD001859F0D
:100B6000B00D949FB00D112498010E943B17A50170
:100B700094010E940D17F601219331936F01298191
:100B80003A812F5F3F4F3A8329832530310591F613
:100B9000309128033A8704E6031B84E6389FA001BE
:100BA00011245C834B8380912903882E912CA12CE6
:100BB000B12C60906F03709070032AE337E0F90165
:100BC000E619F709FE83ED83FA85F195F9872BEA9B
:100BD00032E03A8329831EE63A85131B482F50E002
:100BE00058874F8380E1C82E87E2D82EE12CF12C64
:100BF0005985151614F04A8501C0402F8985880251
:100C0000D00111242F8138850E943B171B012C0134
:100C1000242F30E0D9010E942C179B01AC01C201A6
:100C2000B1010E940D17DA01C9018C599F4FAF4FD6
:100C3000BF4FAC01BD01481959096A097B09E98513
:100C40008E2FEE0F990B849FD001859FB00D949F3E
:100C5000B00D11242B813C81A20FB31F2D813E8149
:100C60000E942C17A70196010E94EB16260D371D36
:100C7000E981FA8121933193FA83E983F985F65F5B
:100C8000F9871F13B5CF81E008C043E064E686E032
:100C90000E940A050E94890680E02A960FB6F89401
:100CA000DEBF0FBECDBFDF91CF911F910F91FF909F
:100CB000EF90DF90CF90BF90AF909F908F907F90FC
:100CC0006F905F904F903F902F900895CF93C82FD3
:100CD00010925502E5E0F3E090E785E5915019F0B8
:100CE0002191820FFBCF8093740340E750E060E1D5
:100CF00070E085E093E00E94AF140E945705C13078
:100D000031F441E064E18FE0CF910C940A05CF917A
:100D10000895E5E0F3E081E280832EE1218397E10D
:100D200092838383248395832AE5258B9AE0968B8F
:100D300034E6378B34E436833DE23783108630E483
:100D4000318739E1328748E143874FE04487158690
:100D5000168642E247874EE0408B45E3418B328B5B
:100D6000838B83E5848B88E2808F138E148E158E9F
:100D7000268F81E4878F10A211A212A282E383A39F
:100D800014A212A611A614A613A616A615A610AA9A
:100D900017A616A215A210A617A211AA2EE734E0D4
:100DA0003093700320936F039093710388E790E072
:100DB000909373038093720380E00C9466061F92F5
:100DC0000F920FB60F9211248F939F93EF93FF937F
:100DD0009091C600E091540181E08E0FF0E0EB5A53
:100DE000FE4F908380935401FF91EF919F918F91DB
:100DF0000F900FBE0F901F9018951F920F920FB675
:100E00000F9211248F939F93EF93FF939091520130
:100E100080915301981769F081E0890F87FD80E088
:100E2000E82FF0E0E25BFB4F90819093C600809347
:100E3000520190915301891305C08091C1008F7DAB
:100E40008093C100FF91EF919F918F910F900FBE02
:100E50000F901F9018950F931F93CF93C82F80ED7D
:100E60000E94FC02C093BB0084E80E94E70281ED6F
:100E70000E94FC0200E015E0C6E0C15049F084EC9D
:100E80000E94E7028091BB00F80181938F01F5CFAA
:100E900084E80E94E7028091BB0094E99093BC0033
:100EA00080930505CF911F910F9108950F931F9384
:100EB000CF93DF93082F162F80ED0E94FC02CBEB1F
:100EC000D0E0088384E80E94E702188384E80E9447
:100ED000E70284E98093BC00DF91CF911F910F91CD
:100EE000089590E0FC01E552FF4F2491FC01E95385
:100EF000FF4F8491882399F090E0880F991FFC019F
:100F0000E354FF4FA591B491FC01ED54FF4F85913F
:100F100094918FB7F894EC91E22BEC938FBF0895E6
:100F2000CF93DF93CDB7DEB7E7970FB6F894DEBF68
:100F30000FBECDBF0E94970082E08093C000109248
:100F4000C50080E18093C4008091C10088698093CE
:100F5000C1008DE00E94710788E00E94710708E2DD
:100F600011E0BCE2EB2EB1E0FB2ED8018D918D019A
:100F70000E947107E016F106C1F780918000806839
:100F800080938000809180008062809380008091B7
:100F9000B00080688093B0008091B0008062809340
:100FA000B00088EE93E09093CC028093CB029093B4
:100FB000CE028093CD029093D0028093CF02909383
:100FC000D2028093D1020E9467016CE271E080E05E
:100FD00090E00E94F7000E944C04109255020E947B
:100FE000570580915502882321F081508093550246
:100FF000F6CF0E944C040E945705409155024F5F66
:1010000068E282E00E940A05E0E4F1E09BB1DF01C2
:101010008191892B8BB990916D008C91892B809354
:101020006D00B1E0E534FB0789F784E08093680048
:1010300015E0ACE0FA2E04E0449845981092B9000F
:10104000F092B8000093BC00109266021092650204
:1010500060E88BE60E94560762E370E080E090E073
:101060000E94F70063E08BE60E94560760E08AE189
:101070000E94560768E18BE10E94560762E087E311
:101080000E94560760E18CE10E945607809165023C
:1010900090916602892B11F0115071F60E94D200D6
:1010A000709325046093240480E092E090930203FF
:1010B00080930103809103038068809303038091F0
:1010C0004A0490914B042091480430914904FC015A
:1010D000E21BF30B1E161F060CF0ABC1805E914B9A
:1010E00090934904809348048091A5038F5F8330D7
:1010F00019F08093A50302C01092A503F5E4EF2E2A
:10110000F1E0FF2E45E753E068E374E00BED13E0F8
:10111000DB0120E030E08FB7F894F70191917F0177
:10112000E92FF0E0EE0FFF1FE050FF4FC080D180AD
:101130008FBFFA01A080B180828193818A0D9B1DAF
:101140000296A480B5808A0D9B1D8C0D9D1D9695E1
:10115000879596958795ED91FC91119733978E170A
:101160009F0728F4FC0132961196FC93EE93ED91C3
:10117000FC9111973396E817F90720F4029711961E
:101180009C938E938091A503F901EE0FFF1FE20F50
:10119000F31FE80FF11DEE0FFF1FEB58FC4FD1823C
:1011A000C0828091DA03882369F081508093DA034A
:1011B000F801808191818538F3E09F071CF011963A
:1011C0009C938E932F5F3F4F4A5F5F4F12960E5F47
:1011D0001F4F2830310509F09ECF30E4E32E34E074
:1011E000F32E10E0812F90E0959587959595879542
:1011F000182FDB012D913D91BD012D34B4E03B074B
:1012000024F010682C3637400CF41064E616F7060C
:1012100049F780913704811308C0809136048A3FD2
:1012200030F48F5F8093360402C01092360410931E
:10123000370480913E0490913F048D34944074F5BE
:101240001092330410923204109235041092340438
:1012500010922E0410922F04109230041092310438
:1012600010922B0410922A0410922D0410922C0438
:1012700080912E0390912F03892B81F09091260469
:1012800080910303992329F080FF03C00E94360553
:1012900005C081FF03C08D7F8093030380913604D6
:1012A000843109F05EC08091030381FF0EC020915C
:1012B0002E0330912F03232B09F053C01F3509F063
:1012C00050C08D7F809303034CC0173539F420E064
:1012D00032E0309302032093010309C01B3639F436
:1012E0000E94D20070932504609324043AC0809138
:1012F0002E0390912F03892B29F41F3619F40E9495
:1013000036052FC0173939F440E052E050932304DA
:101310004093220426C01B3B31F480912C03909112
:101320002D03029607C0173B51F480912C03909136
:101330002D03029790932D0380932C030DC01E3B29
:1013400011F00C94881480912A0390912B0302963B
:1013500090932B0380932A0381E00E9466061092EB
:10136000360480E090E000E010E0D7014D915D91FF
:101370007D0161E070E0453AB6E05B0714F460E09F
:1013800070E09C012E5F3F4FFB0102C0EE0FFF1F7C
:101390002A95E2F79F0161E070E04431F5E05F07D4
:1013A00014F060E070E0082E02C0660F771F0A9408
:1013B000E2F7622B732B4551554021E030E04F3866
:1013C000514010F020E030E0AC014F5F5F4F02C0B1
:1013D000220F331F4A95E2F7622B732B062B172B34
:1013E00003968C30910509F62EE233E0A6E2B4E0D4
:1013F000F901819191919F018023912341E0892BF3
:1014000009F440E04D93F4E0AA32BF0789F79091C8
:1014100027048091030391110C947C1420912004E3
:10142000309121042333310514F00C947C140C9476
:10143000201480911F04823051F028F4882339F061
:10144000813029F006C0833011F0843011F41092FD
:101450001F040E94D20060934A0470934B0480934F
:101460004C0490934D042091240430912504AB0149
:10147000421B530B9A0150931E0440931D04203FBE
:101480003A4038F370932504609324048BE30E9460
:101490002B078091000590910105982789279827AF
:1014A000919581959109B3E095958795BA95E1F766
:1014B0009093F4028093F3028091020590910305CA
:1014C00098278927982791958195910913E09595FB
:1014D00087951A95E1F79093F6028093F502809133
:1014E00004059091050598278927982703E095958D
:1014F00087950A95E1F79093F8028093F70280911F
:10150000220490912304009709F461C001979093FD
:1015100023048093220463EF72E0E6EAF3E046E5F9
:1015200052E08F3FA1E09A0721F4108211821282CB
:101530001382DB012D913D91BD016901330FEE084E
:10154000FF0800811181228133810C0D1D1D2E1D8C
:101550003F1D0193119321933193A9E03595279570
:1015600017950795AA95D1F7DA010D931D93AD0153
:10157000B2E0693F7B07A9F6892B49F580915A02B1
:1015800090915B02925090935B0280935A0210926A
:101590002B0310922A0310922D0310922C03E5E5E1
:1015A000F2E090E185E5915019F02191820FFBCF97
:1015B0008093640240E150E060E070E085E592E0F5
:1015C0000E94AF1441E064E18FE00E940A0580911F
:1015D000F3029091F4022091560230915702821B3F
:1015E000930B9093F4028093F3028091F502909113
:1015F000F6022091580230915902821B930B90936E
:10160000F6028093F5028091F7029091F802209102
:101610005A0230915B02821B930B9093F8028093E5
:10162000F7020E94D2006B017C018091C00390916F
:10163000C103B601681B790B80E090E00E94DC15C5
:1016400029E134E442E959E30E946A162B013C0186
:10165000D092C103C092C003EBEDF2E0FAA3E9A37C
:1016600024EB33E0388F2F8BAE014F5F5F4F1A01B1
:1016700081EE92E09C8F8B8F8F01C12CD12C760153
:10168000AF89B88D8D909D90AD90BC90D501C4016F
:1016900074E0B695A795979587957A95D1F7F80157
:1016A000819391938F0146895789481B590B052EC9
:1016B000000C660B770B480D591D6A1D7B1DEF89C9
:1016C000F88D4193519361937193F88FEF8BBC0127
:1016D0000E940703C60ED71EE81EF91ED8015096B9
:1016E0006D917C915197072E000C880B990B0E94ED
:1016F000DE15A30192010E946A160E94A615F1014F
:10170000619371931F01F2E0013E1F0709F0B8CF0A
:10171000BE016F5F7F4F8CE191E00E941A03BE0112
:101720006F5F7F4F80E191E00E941A03CD2CDE2C89
:10173000EF2CFF24E7FCFA948601075613405CE186
:10174000C52E51E0D52E6BEDE62E62E0F62E412C33
:10175000512C3201023321E01207F8F4D7018D91A8
:101760009C91F60122813381821B930B092E000C80
:10177000AA0BBB0B36E0880F991FAA1FBB1F3A9517
:10178000D1F74081518162817381840F951FA61F1B
:10179000B71F80839183A283B383D60112966D9184
:1017A0007C911397F701819191917F010E9407032A
:1017B000460E571E681E791EF4E0CF0ED11C28E29B
:1017C000C21621E0D20631F6209126013091270180
:1017D00080910303213D314014F0806801C08F7770
:1017E0008093030380911E0190911F01BC010E9410
:1017F00007036B017C018091260190912701BC01B8
:101800000E940703A7019601260F371F481F591F83
:101810002F8B388F498F5A8F80912201909123010D
:10182000BC010E9407032F89388D498D5A8D620FA4
:10183000731F841F951F0E94DE158B019C01359537
:10184000279517950795E9EFCE2EDD24DA94EFE181
:10185000EE2EEFE5FE2EC01AD10AE20AF30A27E3C4
:1018600036E344E35FE30E946A16A70196010E94F3
:101870006A16A70196010E946A169B01AC0166EFE9
:1018800078E487ED9FE30E94C714A70196010E94A8
:101890006A166D8F7E8F8F8F98A300911E01109115
:1018A0001F012091260130912701032E000C440BCB
:1018B000550BB801012E000C880B990B0E949B035D
:1018C0009093FC028093FB026F89788D898D9A8DAD
:1018D0000E94DE156B017C01DC01CB01B595A7955B
:1018E0009795879529EF822E99249A942FE1A22E1D
:1018F0002FE5B22E881A990AAA0ABB0A27E336E313
:1019000044E35FE3C701B6010E946A16A501940192
:101910000E946A16A50194010E946A169B01AC01FF
:1019200066EF78E487ED9FE30E94C714A501940158
:101930000E946A16A70196010E946A160E94A615C7
:101940009B01AC018091220190912301BC01990F70
:10195000880B990B0E949B039093FE028093FD02DB
:10196000A0911601B09117012F89388D498D5A8D9C
:101970000E9442176B017C01B80180911201909185
:1019800013010E9407034B015C01609126017091D5
:10199000270180911A0190911B010E940703A50164
:1019A0009401260F371F481F591FA0912201B091A3
:1019B00023010E944217A7019601261B370B480BF3
:1019C000590BCA01B9010E94DE152D8D3E8D4F8D38
:1019D00058A10E946A160E94A6154B015C016091F5
:1019E0001E0170911F0180911A0190911B010E94AC
:1019F00007036B017C0160912601709127018091A2
:101A00001201909113010E940703A7019601261B62
:101A1000370B480B590BCA01B901A50194010E946B
:101A20009B036AE070E00E94D716709300036093F6
:101A3000FF028091030381FD1EC0E090B203F0908D
:101A4000B303C301B2010E94DE152D8D3E8D4F8D73
:101A500058A10E946A160E94A615970143E0359589
:101A600027954A95E1F7E21AF30A6E0D7F1D7093F0
:101A7000B3036093B2030E9442028091ED02909101
:101A8000EE029093FA038093F9038091EF02909114
:101A9000F0029093FC038093FB038091F1029091FC
:101AA000F2029093FE038093FD030E94D2006F8B9D
:101AB000788F898F9A8F80913E0490913F048D3D5D
:101AC00035E09307ACF030912703803D47E0940761
:101AD00064F48C5D9540389FA001399F500D11240E
:101AE000852F869520E8281B04C020E8231B01C011
:101AF00020E820902503312C88E3482E84E0582EDE
:101B000085E194E09CA78BA7A5E0B3E0BCA3ABA3C1
:101B1000E3E1F4E0FAABE9AB45E054E058AB4FA7A2
:101B20003A014F01BE8FAD8FE5E1F4E030E090E87F
:101B3000B92ED2014D915D912D014D3DB5E05B0770
:101B40002CF0403D67E056074CF40BC08CED95E05F
:101B5000841B950B843FA1E09A0734F084EF91E059
:101B600003C0CA018C5D9540323009F466C0BC01E7
:101B7000660F672F661F770B71958B01000F111F82
:101B80000F531D4FD8010D911C917B01EE0CFF1CD2
:101B9000D701AD53BD4FED90FC90E01AF10A769558
:101BA000762F6627779567956C01C61AD70AEC9C45
:101BB000B001ED9C700DFC9C700D1124660F672F19
:101BC000661F770B7195600F711F71836083829D13
:101BD000B001839D700D929D700D1124872F869505
:101BE000BB2DB81BB29FC0011124880F892F881FFD
:101BF000990B9195AD8DBE8D1C91189FB001199FC9
:101C0000700D1124660F672F661F770B7195D40135
:101C10006C93AD8DBE8D12961C91189FB001199FCB
:101C2000700D1124660F672F661F770B7195D30116
:101C30006C934C3D554034F00CC0918380834C3DF7
:101C40005540BCF480819181919581959109918352
:101C500080833F5F32968D8D9E8D03969E8F8D8FF4
:101C60009FEF891A990AAFEF6A1A7A0A333009F09E
:101C700060CF20913E0430913F042C34B4E03B0708
:101C80003CF0213DE7E03E072CF020ED37E002C0BC
:101C90002CE434E02C543440AFEFB9E00E942C1710
:101CA00024E833E040E050E00E94EB16832F9927B0
:101CB000FC01EE0FFF1FE555FD4FA081B181FC0136
:101CC000EE0FFF1FE355FD4F608171816A1B7B0B97
:101CD000982F88278901081B190B609FC001619FFD
:101CE000900D709F900D1124892F9927AC014A0FF8
:101CF0005B1F50931C0440931B048091F2038F5F81
:101D00008093F2038091220490912304892B31F473
:101D10008091010390910203892B11F01D9A08C054
:101D20008091030382FD2D988091030381FD2D9AFC
:101D300040914A0450914B0460914C0470914D04C1
:101D40008091EE039091EF03A091F003B091F10325
:101D500084179507A607B70700F58091030387FD51
:101D600019C08B7F809303031D9A80914A04909140
:101D70004B04A0914C04B0914D0480569947AE4F4E
:101D8000BF4F8093EE039093EF03A093F003B093C3
:101D9000F10303C08460809303030E94D200109279
:101DA000AA02809154019091C203891B72E3F72E1D
:101DB000ECE66E2EE0E07E2EFAE38F2EF7E09F2E0B
:101DC000A8EEAA2EA3E0BA2EB0EFEB2E13E0D12E90
:101DD0002FEF280F882309F4D9C1809153019091E6
:101DE0005201891B8F778F3408F0D0C18091C203D4
:101DF000E82FF0E0EB5AFE4F9081309154018317A9
:101E000019F08F5F8093C2038091ED03811105C0AB
:101E100081E0943209F0B3C1B6C1813029F49D3418
:101E200009F0ADC182E0AFC1823029F49C3309F0E2
:101E3000A6C183E0A8C1833071F4913410F0822FE1
:101E4000C7CF9093EC039093A9021092EB031092EA
:101E5000A80284E098C1843049F49093A70280914D
:101E6000A90298279093A90285E08DC1853009F0D9
:101E70008AC1E091EB034091EC033091A902E41791
:101E800060F439273093A90231E03E0F3093EB0321
:101E9000F0E0E959FD4F908376C1391372C180910A
:101EA000A702853709F42CC108F057C08D3609F414
:101EB0001BC128F5873609F4F6C0A8F4853609F465
:101EC000C1C008F0ECC0843609F052C1E982DA8260
:101ED0001B8220E030E040E050E72C833D834E83BE
:101EE0005F8367E0D9C0893609F4FAC008F4E9C015
:101EF0008C3609F03DC166E08BEF92E036C1813748
:101F000009F401C148F48F3609F4F2C008F0F4C0B6
:101F100067E08BEC93E029C1833709F407C108F02F
:101F2000F6C01A82198280916F03909170039C838E
:101F30008B839E828D82B886AF821A8619861C8614
:101F40001B861D861E861F86188A1A8A198A1B8A76
:101F50001C8A1D8A1E8A66E19FC08F3C09F45EC000
:101F6000D8F48A3C09F446C078F4883709F49FC055
:101F7000883CC1F1873709F0FBC064E080E00E9433
:101F8000B90408E610E0C8C08C3C09F441C0C0F1B7
:101F90008D3C09F4D6C0ECC08F3E09F496C050F4D5
:101FA000833D09F449C0843D09F485C0803D09F0B2
:101FB000DFC0C0C08A3F09F4CFC08E3F09F4D2C051
:101FC000803F09F0D5C064E080E00E94B90462E07F
:101FD0008CE293E00E94990462E08AE293E00E941E
:101FE0009904CAC060E18BED93E00E946A04F0920C
:101FF000DA03C7C00E94DD046EE185E093E005C00E
:102000000E94DD0468E08EE293E00E946A04B9C099
:102010000E94DD0467E083E293E0F7CF0E94DD04D5
:1020200066E1CE0101960E946A048B819C819093A7
:10203000700380936F03A5C00E94DD0462E089EF06
:1020400092E0E3CF80911D0490911E049A838983CE
:1020500080916502909166029C838B8341E050E001
:102060005E834D832091030323FD04C080E090E054
:10207000DC0104C082E090E0A0E0B0E024FD8460D8
:1020800025FD886021FD81608F839887A987BA87A5
:10209000809155028B876BE0CE01019666C062E1AC
:1020A0008BED92E062C060E180E391E05EC068E3A6
:1020B00087E393E05AC00E94DD0468E387E393E07E
:1020C000A4CF60E18BEC92E050C00E94DD0462E09E
:1020D0008CE293E00E946A0462E08AE293E095CF8A
:1020E00060E188E394E041C066E084ED93E03DC0A8
:1020F00067E083E293E039C06EE185E093E035C0AC
:1021000083E890E006C068E08EE293E02EC08CE6A3
:1021100090E00E94F40435C0F80184910E9481048B
:102120000F5F1F4F60167106B9F726C068E088E29E
:1021300091E01BC08091030381FD11C00E948906BC
:102140000EC08091030381FD0AC020E032E030938D
:1021500023042093220403C080E00E9466060E94AC
:10216000DD040FC068E083EC93E00E94E30409C043
:1021700060E081E00E94B9040E94AB0402C080E0EC
:1021800002C080E020E08093ED0359CE0E94D2008F
:102190004F89588D641B750B6A387240BCF30E94DE
:1021A0004202E9EFF3E003EF13E063E0E62EF12CE7
:1021B000AB8DBC8D1C962D913C911D97808191819A
:1021C000280F391F21933193D8018D919C91820F53
:1021D000931FB7010E94D716AB8DBC8D6D937D9375
:1021E000BC8FAB8F35952795D8012D933D938D01ED
:1021F000B3E0EF3FFB07E1F62091190430911A0498
:10220000A9014B5B5F4FE0910303EB8F8091FF02CD
:10221000909100034B38510570F5E5FF2CC04091BB
:10222000F9025091FA02841B950B8D34FFEF9F0742
:1022300014F488599E4F843B910514F088569140C0
:102240004B8D47FD04C0409104034370C1F0609181
:102250001D03689FA001699F500D1124CA0145E02C
:10226000959587954A95E1F7281B390B30931A0409
:102270002093190404C09093FA028093F9025B8DB5
:1022800054FF21C0809115049091160497FF03C05C
:10229000919581959109209117043091180437FF89
:1022A00003C0319521953109821793070CF4C901B8
:1022B000813062E0960714F080E092E02C01990FE3
:1022C0006608770803C0412C512C32018FE094E05E
:1022D0009AA789A7ABE0B4E0B8A7AFA3E7E0F4E022
:1022E000FEA3EDA32FEF33E03EA72DA702E314E0FA
:1022F0004AE254E0588F4F8B85E093E09E8F8D8F9C
:10230000212C312C9B8D98719FABABA5BCA5CD909A
:10231000DD90BCA7ABA7CC0CDD1CE9A1FAA186819E
:1023200097819C0197FF04C022273327281B390B74
:1023300021383240CCF49601281B390BC901D80151
:102340002D913C91820F931F8138BEE39B0714F0BF
:1023500080E89EE38038E1EC9E0714F480E891EC7D
:10236000D8018D939C9303C0F80111821082D8018B
:102370008D919C91880F892F881F990BED8DFE8D73
:102380002181289F4001299F900C112486E095947B
:1023900087948A95E1F7608170E0C6010E94070387
:1023A0009B01AC0196E055954795379527959A95F1
:1023B000D1F72BAB3CAB4DAB5EABEBA8FCA83FA978
:1023C000332309F493C0F101E35BFE4F80819181D7
:1023D0008C0D9D1D853F41E0940714F084EF91E042
:1023E0008C305EEF950714F48CE09EEFF101E55020
:1023F000FD4F208131816C01C21AD30AABA1BCA16F
:1024000095968D919C9196978C0D9D1DEF89F88DD9
:10241000C080D180C80ED91EF1E1CF16F7E2DF06E9
:1024200024F0A0E1CA2EA7E2DA2E20EFC21628ED92
:10243000D20624F4F0EFCF2EF8EDDF2EAF89B88D61
:10244000CD92DC9260911A0370E00E940703AB0109
:10245000BC01E7E07595679557954795EA95D1F7E3
:1024600080911C03B5E08B9FC0011124AA24BB24DA
:10247000A81AB90A4A155B052CF05A01841795076A
:102480000CF45C0160911B0370E0C6010E9407031D
:102490006B017C014CE0F594E794D794C7944A957E
:1024A000D1F7D401AC19BD09A30192010E944217D2
:1024B000DC01CB0169E0B595A795979587956A955D
:1024C000D1F74C018C0C9D1CABA9BCA9AA19BB0966
:1024D0000E944217DC01CB0179E0B595A79597954D
:1024E00087957A95D1F77501E80EF91EE9A9FAA941
:1024F0006191FAABE9AB70E0A9A1BAA116968D91F2
:102500009C9117970E940703DC01CB0126E0B5954B
:10251000A795979587952A95D1F7E81AF90AE9A121
:10252000FAA186819781A9A5BAA52D913C91119711
:10253000FC01E21BF30B9F018D939D93BAA7A9A702
:10254000AFA1B8A54D915C911197EDA1FEA180813D
:102550009181840F951F41935193FEA3EDA32D9379
:102560003D93B8A7AFA3AFA5B8A96D91B8ABAFA77E
:1025700070E0820F931F0E940703E80CF91CDC0136
:10258000CB0135E0B595A795979587953A95D1F705
:10259000E81AF90AEDA5FEA5E192F192FEA7EDA7D2
:1025A000F2E02F0E311C29A13AA12E5F3F4F3AA332
:1025B00029A30E5F1F4F4D8D5E8D4D5F5F4F5E8F68
:1025C0004D8F8BA19CA102969CA38BA3AF89B88D44
:1025D0001296B88FAF8BB4E02B16310409F095CE6C
:1025E0006091260370E0615F7F4F660F771F8091D7
:1025F000190490911A040E9407034B015C01A5E0A5
:10260000B594A79497948794AA95D1F78091E50201
:102610009091E6027401E81AF90A60910C0370E0E7
:10262000C7010E940703940197FE04C022273327A5
:10263000281939092333310564F580902E049090D0
:102640002F04A0903004B0903104DC01CB01880D40
:10265000991DAA1DBB1D8F3FEFEF9E07AE07EFE050
:10266000BE0724F08EEF9FEFAFEFBFE08230910501
:10267000A105F0EFBF0724F482E090E0A0E0B0EF06
:1026800080932E0490932F04A0933004B0933104D0
:1026900008C010922E0410922F0410923004109251
:1026A000310460910B0370E0C7010E940703AB0186
:1026B000BC01E6E07595679557954795EA95D1F782
:1026C00090910D032CE231E0D901A91BB109222719
:1026D00033272A1B3B0B421753072CF09A01A417F0
:1026E000B5070CF49D0180912E0490912F04A091C8
:1026F0003004B09131044DE0B595A7959795879535
:102700004A95D1F78B3F910514F08AEF90E086301F
:10271000BFEF9B0714F486E09FEFAC01420F531FFD
:102720005093040440930304A0911B04B0911C0433
:102730002091FF0330910004CD01821B930BE091A7
:102740000104F0910204BC016E0F7F1F641B750B26
:102750007093CC026093CB028E1B9F0B840F951F4E
:102760009093CE028093CD022A0F3B1FDF01A20F70
:10277000B31FA40FB51FB093D002A093CF022E1B9E
:102780003F0B241B350B3093D2022093D1028A17C2
:102790009B070CF4CD01821793070CF4C90186172F
:1027A00097070CF4CB0140916F0350917003A090F8
:1027B0003E04B0903F04EBECF2E024E0E22EDC01BA
:1027C000AA53B7402B8D2074D22E3B8D3270F32E3E
:1027D00008EE13E08B3367E0960734F020813181F7
:1027E0002A1B3B0B3183208320813181241735073D
:1027F0003CF02B3367E0360724F02AE337E001C0D2
:102800009A01318320832CE4A21624E0B20624F43A
:10281000D11002C051834083F11002C011830083A4
:10282000EA943296E110D6CF0E94670180E090E0F2
:10283000892B11F40C945F080E9400000C945F082F
:1028400083FF08C0109233041092320410923504B2
:102850001092340480910303877F80930303809157
:102860002804882389F080910303877F80930303E2
:1028700084FD1BC010922B0410922A0410922D0488
:1028800010922C0480610FC08091030384FF08C064
:1028900010923304109232041092350410923404D2
:1028A000809103038F7E809303038091260481111E
:1028B00005C0809103038160809303038091290404
:1028C000882399F08091030385FF02C00C94290AA4
:1028D0008062809303038091FF02909100039093A4
:1028E000FA028093F9020C94290A809103038F7DE8
:1028F000809303030C94290A83FDB1CF10922B041B
:1029000010922A0410922D0410922C048860A5CFF6
:102910001D3B11F00C94B10980912A0390912B0377
:1029200002970C94A809F8940C946917FC0105907F
:102930000020E9F7809590958E0F9F1F0895DC0188
:10294000CB01FC01F999FECF06C0F2BDE1BDF89ABA
:10295000319600B40D9241505040B8F70895DC0113
:10296000CB0103C02D910E94BA1441505040D0F7C2
:102970000895262FF999FECF1FBA92BD81BD20BDC3
:102980000FB6F894FA9AF99A0FBE01960895505826
:10299000BB27AA270E94DF140C9430160E9422162F
:1029A00038F00E94291620F039F49F3F19F426F4DC
:1029B0000C941F160EF4E095E7FB0C941916E92F02
:1029C0000E94411658F3BA176207730784079507E8
:1029D00020F079F4A6F50C9463160EF4E0950B2E16
:1029E000BA2FA02D0B01B90190010C01CA01A00161
:1029F0001124FF27591B99F0593F50F4503E68F1BC
:102A00001A16F040A22F232F342F4427585FF3CFFC
:102A1000469537952795A795F0405395C9F77EF4CD
:102A20001F16BA0B620B730B840BBAF09150A1F016
:102A3000FF0FBB1F661F771F881FC2F70EC0BA0F9C
:102A4000621F731F841F48F4879577956795B79524
:102A5000F7959E3F08F0B0CF9395880F08F099271F
:102A6000EE0F9795879508950E9448150C9430169F
:102A70000E94291658F00E94221640F029F45F3F68
:102A800029F00C94191651110C9464160C941F160D
:102A90000E94411668F39923B1F3552391F3951BD6
:102AA000550BBB27AA2762177307840738F09F5F6F
:102AB0005F4F220F331F441FAA1FA9F335D00E2EDC
:102AC0003AF0E0E832D091505040E695001CCAF749
:102AD0002BD0FE2F29D0660F771F881FBB1F26170C
:102AE00037074807AB07B0E809F0BB0B802DBF01E3
:102AF000FF2793585F4F3AF09E3F510578F00C94B2
:102B000019160C9464165F3FE4F3983ED4F386954F
:102B100077956795B795F7959F5FC9F7880F911DD2
:102B20009695879597F90895E1E0660F771F881FBE
:102B3000BB1F621773078407BA0720F0621B730B71
:102B4000840BBA0BEE1F88F7E09508950E94AD152F
:102B50006894B1110C94641608950E94491688F087
:102B60009F5798F0B92F9927B751B0F0E1F0660F51
:102B7000771F881F991F1AF0BA95C9F714C0B13092
:102B800091F00E946316B1E008950C946316672FCC
:102B9000782F8827B85F39F0B93FCCF386957795C1
:102BA0006795B395D9F73EF49095809570956195AA
:102BB0007F4F8F4F9F4F0895E89409C097FB3EF4D5
:102BC00090958095709561957F4F8F4F9F4F99237A
:102BD000A9F0F92F96E9BB279395F69587957795F8
:102BE0006795B795F111F8CFFAF4BB0F11F460FFB8
:102BF0001BC06F5F7F4F8F4F9F4F16C0882311F010
:102C000096E911C0772321F09EE8872F762F05C023
:102C1000662371F096E8862F70E060E02AF09A95BE
:102C2000660F771F881FDAF7880F9695879597F9B3
:102C3000089597F99F6780E870E060E008959FEF3E
:102C400080EC089500240A94161617061806090643
:102C5000089500240A941216130614060506089512
:102C6000092E0394000C11F4882352F0BB0F40F49A
:102C7000BF2B11F460FF04C06F5F7F4F8F4F9F4FDA
:102C8000089557FD9058440F551F59F05F3F71F05C
:102C90004795880F97FB991F61F09F3F79F08795C3
:102CA0000895121613061406551FF2CF4695F1DF4C
:102CB00008C0161617061806991FF1CF86957105DC
:102CC000610508940895E894BB2766277727CB0110
:102CD00097F908950E947D160C9430160E942216D2
:102CE00038F00E94291620F0952311F00C94191643
:102CF0000C941F1611240C9464160E94411670F354
:102D0000959FC1F3950F50E0551F629FF001729F90
:102D1000BB27F00DB11D639FAA27F00DB11DAA1F9F
:102D2000649F6627B00DA11D661F829F2227B00DEC
:102D3000A11D621F739FB00DA11D621F839FA00D77
:102D4000611D221F749F3327A00D611D231F849FC7
:102D5000600D211D822F762F6A2F11249F5750401E
:102D60009AF0F1F088234AF0EE0FFF1FBB1F661F99
:102D7000771F881F91505040A9F79E3F510580F062
:102D80000C9419160C9464165F3FE4F3983ED4F348
:102D9000869577956795B795F795E7959F5FC1F706
:102DA000FE2B880F911D9695879597F9089597FBAF
:102DB000072E16F4009407D077FD09D00E944A1719
:102DC00007FC05D03EF4909581959F4F089570952E
:102DD00061957F4F0895A1E21A2EAA1BBB1BFD012E
:102DE0000DC0AA1FBB1FEE1FFF1FA217B307E407EA
:102DF000F50720F0A21BB30BE40BF50B661F771F42
:102E0000881F991F1A9469F7609570958095909521
:102E10009B01AC01BD01CF010895052E97FB1EF467
:102E200000940E94241757FD07D00E94EB1607FC60
:102E300003D04EF40C94241750954095309521956D
:102E40003F4F4F4F5F4F08959095809570956195D6
:102E50007F4F8F4F9F4F0895A29FB001B39FC00136
:102E6000A39F700D811D1124911DB29F700D811DB6
:102E70001124911D08950E942C17B7FF0895821BFD
:102E8000930B0895B7FF0C945E170E945E17821B88
:102E9000930B0895AA1BBB1B51E107C0AA1FBB1FC0
:102EA000A617B70710F0A61BB70B881F991F5A95D6
:102EB000A9F780959095BC01CD0108950E942C172B
:102EC000A59F900DB49F900DA49F800D911D11247E
:062ED0000895F894FFCF05
:102ED600DE05DE05DE05DE05DE05DE05DE05DE05D4
:102EE60000000000000000010000000000000000DB
:102EF6000000000000000002090A0B030605100C82
:102F0600DC05DC05DC05DC05DC05DC05DC05E803A9
:102F1600041020408004050602070001030000009B
:022F26000000A9
:00000001FF
