:100000000C9434000C9446000C9446000C9446006A
:100010000C9446000C9446000C9446000C94460048
:100020000C9446000C9446000C9446000C94460038
:100030000C9446000C9446000C9446000C94460028
:100040000C9483000C9446000C9446000C944600DB
:100050000C9446000C9446000C9446000C94460008
:100060000C9446000C94460011241FBECFEFD4E040
:10007000DEBFCDBF21E0A0E0B1E001C01D92A930FC
:10008000B207E1F70E94CD000C94D6000C9400005A
:10009000789484B5826084BD84B5816084BD85B563
:1000A000826085BD85B5816085BDEEE6F0E080812A
:1000B00081608083E1E8F0E010828081826080834B
:1000C000808181608083E0E8F0E0808181608083CE
:1000D000E1EBF0E0808184608083E0EBF0E0808100
:1000E00081608083EAE7F0E08081846080838081A2
:1000F000826080838081816080838081806880834A
:100100001092C10008951F920F920FB60F92112402
:100110002F933F938F939F93AF93BF93809105014C
:1001200090910601A0910701B0910801309104015E
:1001300026E0230F2D3720F40296A11DB11D05C026
:1001400029E8230F0396A11DB11D2093040180937C
:10015000050190930601A0930701B09308018091D7
:10016000000190910101A0910201B091030101965B
:10017000A11DB11D8093000190930101A093020184
:10018000B0930301BF91AF919F918F913F912F91B8
:100190000F900FBE0F901F9018950E944800C0E06E
:1001A000D0E02097F1F30E940000FBCFF8940C946C
:0601B000D900F894FFCF16
:00000001FF
