:100000000C945D000C9485000C9485000C94850084
:100010000C9485000C9485000C9485000C9485004C
:100020000C9485000C9485000C9485000C9485003C
:100030000C9485000C9485000C9485000C9485002C
:100040000C9496020C9485000C9464020C943E026D
:100050000C9485000C9485000C9485000C9485000C
:100060000C9485000C94850000000008000201003B
:100070000003040700000000000000000000000072
:10008000250028002B0000000000240027002A0083
:10009000040404040404040402020202020203032E
:1000A0000303030301020408102040800102040836
:1000B00010200102040810208A0311241FBECFEF74
:1000C000D8E0DEBFCDBF11E0A0E0B1E0E8E8F7E0A6
:1000D00002C005900D92A231B107D9F721E0A2E14B
:1000E000B1E001C01D92A83BB207E1F710E0CDE5F9
:1000F000D0E004C02197FE010E94B703CC35D107A0
:10010000C9F70E94E0020C94C2030C940000CF9245
:10011000DF92EF92FF920F931F93CF93DF936C01C7
:100120007A018B01C0E0D0E0CE15DF0589F0D8015F
:100130006D918D01D601ED91FC910190F081E02D42
:10014000C6010995892B11F47E0102C02196ECCFDE
:10015000C701DF91CF911F910F91FF90EF90DF903A
:10016000CF900895089580E090E00895FC01538DAC
:10017000448D252F30E0842F90E0821B930B541781
:1001800010F0CF96089501970895FC01918D828D0E
:10019000981761F0828DDF01A80FB11D5D968C91DB
:1001A000928D9F5F9F73928F90E008958FEF9FEFE6
:1001B0000895FC01918D828D981731F0828DE80FA2
:1001C000F11D858D90E008958FEF9FEF0895FC015C
:1001D000918D228D892F90E0805C9F4F821B910929
:1001E0008F73992708958BE191E00E94E70021E049
:1001F000892B09F420E0822F0895FC01848DDF0112
:10020000A80FB11DA35ABF4F2C91848D90E0019689
:100210008F739927848FA689B7892C93A089B18978
:100220008C9180648C93938D848D981306C0028882
:10023000F389E02D80818F7D80830895EF92FF9276
:100240000F931F93CF93DF93EC0181E0888F9B8DF9
:100250008C8D981305C0E889F989808185FD24C0BB
:10026000F62E0B8D10E00F5F1F4F0F731127E02E3E
:100270008C8DE8120CC00FB607FCFACFE889F9891B
:10028000808185FFF5CFCE010E94FD00F1CF8B8DDF
:10029000FE01E80FF11DE35AFF4FF0820B8FEA8950
:1002A000FB898081806207C0EE89FF896083E889CD
:1002B000F98980818064808381E090E0DF91CF9133
:1002C0001F910F91FF90EF900895CF93DF93EC0172
:1002D000888D8823C9F0EA89FB89808185FD05C066
:1002E000A889B9898C9186FD0FC00FB607FCF5CFA0
:1002F000808185FFF2CFA889B9898C9185FFEDCFE8
:10030000CE010E94FD00E7CFDF91CF91089580E0FC
:1003100090E0892B29F00E94F30081110C940000D9
:10032000089590E0FC01E859FF4F3491FC01EC5531
:10033000FF4F2491FC01E057FF4FE491EE2309F4B5
:100340003BC0332339F1333091F038F43130A9F028
:10035000323001F584B58F7D12C0373091F03830DE
:10036000A1F03430B9F4809180008F7D03C080917A
:1003700080008F77809380000DC084B58F7784BD17
:1003800009C08091B0008F7703C08091B0008F7D4D
:100390008093B000F0E0EE0FFF1FE458FF4FA591EF
:1003A000B4918FB7F894EC91611103C020952E237E
:1003B00001C02E2B2C938FBF08953FB7F8948091E6
:1003C000170190911801A0911901B0911A0126B559
:1003D000A89B05C02F3F19F00196A11DB11D3FBF7D
:1003E000BA2FA92F982F8827820F911DA11DB11D0B
:1003F000BC01CD0142E0660F771F881F991F4A9507
:10040000D1F708958F929F92AF92BF92CF92DF92D1
:10041000EF92FF926B017C010E94DD014B015C01B8
:10042000C114D104E104F104F1F00E94DD01DC010A
:10043000CB0188199909AA09BB09883E9340A105F7
:10044000B10570F321E0C21AD108E108F10888EE85
:10045000880E83E0981EA11CB11CC114D104E104D4
:10046000F10419F7DDCFFF90EF90DF90CF90BF90B0
:10047000AF909F908F9008950E94BD031F920F929E
:100480000FB60F9211242F933F934F935F936F9367
:100490007F938F939F93AF93BF93EF93FF938BE1E2
:1004A00091E00E94FD00FF91EF91BF91AF919F916C
:1004B0008F917F916F915F914F913F912F910F900D
:1004C0000FBE0F901F9018951F920F920FB60F92AC
:1004D00011242F938F939F93EF93FF93E0912B0120
:1004E000F0912C018081E0913101F091320182FD87
:1004F00012C09081809134018F5F8F7320913501FC
:10050000821751F0E0913401F0E0E55EFE4F958FE7
:100510008093340101C08081FF91EF919F918F9171
:100520002F910F900FBE0F901F9018951F920F9252
:100530000FB60F9211242F933F938F939F93AF93F6
:10054000BF938091130190911401A0911501B09176
:1005500016013091120123E0230F2D3720F401966C
:10056000A11DB11D05C026E8230F0296A11DB11DD6
:10057000209312018093130190931401A09315010D
:10058000B09316018091170190911801A091190163
:10059000B0911A010196A11DB11D8093170190938E
:1005A0001801A0931901B0931A01BF91AF919F91C7
:1005B0008F913F912F910F900FBE0F901F90189524
:1005C000789484B5826084BD84B5816084BD85B52E
:1005D000826085BD85B5816085BD80916E0081603A
:1005E00080936E00109281008091810082608093E0
:1005F00081008091810081608093810080918000E2
:100600008160809380008091B10084608093B1000C
:100610008091B00081608093B00080917A00846006
:1006200080937A0080917A00826080937A00809132
:100630007A00816080937A0080917A00806880934C
:100640007A001092C100ECEAF0E02491E8E9F0E0D1
:100650008491882399F090E0880F991FFC01EA5754
:10066000FF4FA591B491FC01E458FF4F85919491FF
:100670008FB7F894EC91E22BEC938FBFE0912B01B4
:10068000F0912C0182E08083E0912701F091280114
:100690001082E0912901F0912A018FEC8083109261
:1006A0003301E0912F01F091300186E08083E091E9
:1006B0002D01F0912E01808180618083E0912D01D8
:1006C000F0912E01808188608083E0912D01F0916E
:1006D0002E01808180688083E0912D01F0912E01B0
:1006E00080818F7D808361E088E00E94910168ECC9
:1006F00070E080E090E00E94020260E088E00E94EA
:10070000910168EE73E080E090E00E9402020E9496
:100710008701E9CFEBE1F1E01382128288EE93E0EA
:10072000A0E0B0E084839583A683B78384E091E062
:100730009183808385EC90E09587848784EC90E0BA
:100740009787868780EC90E0918B808B81EC90E09E
:10075000938B828B82EC90E0958B848B86EC90E07F
:10076000978B868B118E128E138E148E0895EE0F3A
:10077000FF1F0590F491E02D099481E090E0F8943A
:080780000C94C203F894FFCFB2
:10078800000000001E018700B6006501E700C500F3
:02079800D90086
:00000001FF
